{
  "_format": "hh-sol-artifact-1",
  "contractName": "NFTMarketplace",
  "sourceName": "contracts/NFTMarketplace.sol",
  "abi": [
    {
      "inputs": [],
      "stateMutability": "nonpayable",
      "type": "constructor"
    },
    {
      "anonymous": false,
      "inputs": [
        {
          "indexed": true,
          "internalType": "address",
          "name": "owner",
          "type": "address"
        },
        {
          "indexed": true,
          "internalType": "address",
          "name": "approved",
          "type": "address"
        },
        {
          "indexed": true,
          "internalType": "uint256",
          "name": "tokenId",
          "type": "uint256"
        }
      ],
      "name": "Approval",
      "type": "event"
    },
    {
      "anonymous": false,
      "inputs": [
        {
          "indexed": true,
          "internalType": "address",
          "name": "owner",
          "type": "address"
        },
        {
          "indexed": true,
          "internalType": "address",
          "name": "operator",
          "type": "address"
        },
        {
          "indexed": false,
          "internalType": "bool",
          "name": "approved",
          "type": "bool"
        }
      ],
      "name": "ApprovalForAll",
      "type": "event"
    },
    {
      "anonymous": false,
      "inputs": [
        {
          "indexed": true,
          "internalType": "uint256",
          "name": "tokenId",
          "type": "uint256"
        },
        {
          "indexed": false,
          "internalType": "address",
          "name": "seller",
          "type": "address"
        },
        {
          "indexed": false,
          "internalType": "address",
          "name": "owner",
          "type": "address"
        },
        {
          "indexed": false,
          "internalType": "uint256",
          "name": "price",
          "type": "uint256"
        },
        {
          "indexed": false,
          "internalType": "bool",
          "name": "sold",
          "type": "bool"
        }
      ],
      "name": "MarketItemCreated",
      "type": "event"
    },
    {
      "anonymous": false,
      "inputs": [
        {
          "indexed": false,
          "internalType": "address",
          "name": "from",
          "type": "address"
        },
        {
          "indexed": false,
          "internalType": "address",
          "name": "to",
          "type": "address"
        },
        {
          "indexed": false,
          "internalType": "uint256",
          "name": "amount",
          "type": "uint256"
        }
      ],
      "name": "Payment",
      "type": "event"
    },
    {
      "anonymous": false,
      "inputs": [
        {
          "indexed": false,
          "internalType": "address",
          "name": "tokenContract",
          "type": "address"
        },
        {
          "indexed": false,
          "internalType": "uint256",
          "name": "amount",
          "type": "uint256"
        }
      ],
      "name": "TokenWithdrawn",
      "type": "event"
    },
    {
      "anonymous": false,
      "inputs": [
        {
          "indexed": true,
          "internalType": "address",
          "name": "from",
          "type": "address"
        },
        {
          "indexed": true,
          "internalType": "address",
          "name": "to",
          "type": "address"
        },
        {
          "indexed": true,
          "internalType": "uint256",
          "name": "tokenId",
          "type": "uint256"
        }
      ],
      "name": "Transfer",
      "type": "event"
    },
    {
      "inputs": [
        {
          "internalType": "address",
          "name": "to",
          "type": "address"
        },
        {
          "internalType": "uint256",
          "name": "tokenId",
          "type": "uint256"
        }
      ],
      "name": "approve",
      "outputs": [],
      "stateMutability": "nonpayable",
      "type": "function"
    },
    {
      "inputs": [
        {
          "internalType": "address",
          "name": "owner",
          "type": "address"
        }
      ],
      "name": "balanceOf",
      "outputs": [
        {
          "internalType": "uint256",
          "name": "",
          "type": "uint256"
        }
      ],
      "stateMutability": "view",
      "type": "function"
    },
    {
      "inputs": [
        {
          "internalType": "uint256",
          "name": "tokenId",
          "type": "uint256"
        }
      ],
      "name": "createMarketSale",
      "outputs": [],
      "stateMutability": "payable",
      "type": "function"
    },
    {
      "inputs": [
        {
          "internalType": "string",
          "name": "tokenURI",
          "type": "string"
        },
        {
          "internalType": "uint256",
          "name": "price",
          "type": "uint256"
        }
      ],
      "name": "createToken",
      "outputs": [
        {
          "internalType": "uint256",
          "name": "",
          "type": "uint256"
        }
      ],
      "stateMutability": "payable",
      "type": "function"
    },
    {
      "inputs": [],
      "name": "fetchItemsListed",
      "outputs": [
        {
          "components": [
            {
              "internalType": "uint256",
              "name": "tokenId",
              "type": "uint256"
            },
            {
              "internalType": "address payable",
              "name": "seller",
              "type": "address"
            },
            {
              "internalType": "address payable",
              "name": "owner",
              "type": "address"
            },
            {
              "internalType": "uint256",
              "name": "price",
              "type": "uint256"
            },
            {
              "internalType": "bool",
              "name": "sold",
              "type": "bool"
            }
          ],
          "internalType": "struct NFTMarketplace.MarketItem[]",
          "name": "",
          "type": "tuple[]"
        }
      ],
      "stateMutability": "view",
      "type": "function"
    },
    {
      "inputs": [],
      "name": "fetchMarketItems",
      "outputs": [
        {
          "components": [
            {
              "internalType": "uint256",
              "name": "tokenId",
              "type": "uint256"
            },
            {
              "internalType": "address payable",
              "name": "seller",
              "type": "address"
            },
            {
              "internalType": "address payable",
              "name": "owner",
              "type": "address"
            },
            {
              "internalType": "uint256",
              "name": "price",
              "type": "uint256"
            },
            {
              "internalType": "bool",
              "name": "sold",
              "type": "bool"
            }
          ],
          "internalType": "struct NFTMarketplace.MarketItem[]",
          "name": "",
          "type": "tuple[]"
        }
      ],
      "stateMutability": "view",
      "type": "function"
    },
    {
      "inputs": [],
      "name": "fetchMyNFTs",
      "outputs": [
        {
          "components": [
            {
              "internalType": "uint256",
              "name": "tokenId",
              "type": "uint256"
            },
            {
              "internalType": "address payable",
              "name": "seller",
              "type": "address"
            },
            {
              "internalType": "address payable",
              "name": "owner",
              "type": "address"
            },
            {
              "internalType": "uint256",
              "name": "price",
              "type": "uint256"
            },
            {
              "internalType": "bool",
              "name": "sold",
              "type": "bool"
            }
          ],
          "internalType": "struct NFTMarketplace.MarketItem[]",
          "name": "",
          "type": "tuple[]"
        }
      ],
      "stateMutability": "view",
      "type": "function"
    },
    {
      "inputs": [
        {
          "internalType": "uint256",
          "name": "tokenId",
          "type": "uint256"
        }
      ],
      "name": "getApproved",
      "outputs": [
        {
          "internalType": "address",
          "name": "",
          "type": "address"
        }
      ],
      "stateMutability": "view",
      "type": "function"
    },
    {
      "inputs": [],
      "name": "getListingPrice",
      "outputs": [
        {
          "internalType": "uint256",
          "name": "",
          "type": "uint256"
        }
      ],
      "stateMutability": "view",
      "type": "function"
    },
    {
      "inputs": [
        {
          "internalType": "address",
          "name": "owner",
          "type": "address"
        },
        {
          "internalType": "address",
          "name": "operator",
          "type": "address"
        }
      ],
      "name": "isApprovedForAll",
      "outputs": [
        {
          "internalType": "bool",
          "name": "",
          "type": "bool"
        }
      ],
      "stateMutability": "view",
      "type": "function"
    },
    {
      "inputs": [],
      "name": "name",
      "outputs": [
        {
          "internalType": "string",
          "name": "",
          "type": "string"
        }
      ],
      "stateMutability": "view",
      "type": "function"
    },
    {
      "inputs": [
        {
          "internalType": "uint256",
          "name": "tokenId",
          "type": "uint256"
        }
      ],
      "name": "ownerOf",
      "outputs": [
        {
          "internalType": "address",
          "name": "",
          "type": "address"
        }
      ],
      "stateMutability": "view",
      "type": "function"
    },
    {
      "inputs": [
        {
          "internalType": "string",
          "name": "",
          "type": "string"
        }
      ],
      "name": "purchaseInfo",
      "outputs": [
        {
          "internalType": "string",
          "name": "",
          "type": "string"
        }
      ],
      "stateMutability": "view",
      "type": "function"
    },
    {
      "inputs": [
        {
          "internalType": "address",
          "name": "receiveToken",
          "type": "address"
        },
        {
          "internalType": "uint256",
          "name": "amount",
          "type": "uint256"
        },
        {
          "internalType": "string",
          "name": "paymentId",
          "type": "string"
        },
        {
          "internalType": "string",
          "name": "optional",
          "type": "string"
        }
      ],
      "name": "receivePayment",
      "outputs": [],
      "stateMutability": "payable",
      "type": "function"
    },
    {
      "inputs": [
        {
          "internalType": "uint256",
          "name": "tokenId",
          "type": "uint256"
        },
        {
          "internalType": "uint256",
          "name": "price",
          "type": "uint256"
        }
      ],
      "name": "resellToken",
      "outputs": [],
      "stateMutability": "payable",
      "type": "function"
    },
    {
      "inputs": [
        {
          "internalType": "address",
          "name": "from",
          "type": "address"
        },
        {
          "internalType": "address",
          "name": "to",
          "type": "address"
        },
        {
          "internalType": "uint256",
          "name": "tokenId",
          "type": "uint256"
        }
      ],
      "name": "safeTransferFrom",
      "outputs": [],
      "stateMutability": "nonpayable",
      "type": "function"
    },
    {
      "inputs": [
        {
          "internalType": "address",
          "name": "from",
          "type": "address"
        },
        {
          "internalType": "address",
          "name": "to",
          "type": "address"
        },
        {
          "internalType": "uint256",
          "name": "tokenId",
          "type": "uint256"
        },
        {
          "internalType": "bytes",
          "name": "data",
          "type": "bytes"
        }
      ],
      "name": "safeTransferFrom",
      "outputs": [],
      "stateMutability": "nonpayable",
      "type": "function"
    },
    {
      "inputs": [
        {
          "internalType": "address",
          "name": "operator",
          "type": "address"
        },
        {
          "internalType": "bool",
          "name": "approved",
          "type": "bool"
        }
      ],
      "name": "setApprovalForAll",
      "outputs": [],
      "stateMutability": "nonpayable",
      "type": "function"
    },
    {
      "inputs": [],
      "name": "supportSlashExtensionInterface",
      "outputs": [
        {
          "internalType": "bool",
          "name": "",
          "type": "bool"
        }
      ],
      "stateMutability": "pure",
      "type": "function"
    },
    {
      "inputs": [
        {
          "internalType": "bytes4",
          "name": "interfaceId",
          "type": "bytes4"
        }
      ],
      "name": "supportsInterface",
      "outputs": [
        {
          "internalType": "bool",
          "name": "",
          "type": "bool"
        }
      ],
      "stateMutability": "view",
      "type": "function"
    },
    {
      "inputs": [],
      "name": "symbol",
      "outputs": [
        {
          "internalType": "string",
          "name": "",
          "type": "string"
        }
      ],
      "stateMutability": "view",
      "type": "function"
    },
    {
      "inputs": [
        {
          "internalType": "uint256",
          "name": "tokenId",
          "type": "uint256"
        }
      ],
      "name": "tokenURI",
      "outputs": [
        {
          "internalType": "string",
          "name": "",
          "type": "string"
        }
      ],
      "stateMutability": "view",
      "type": "function"
    },
    {
      "inputs": [
        {
          "internalType": "address",
          "name": "from",
          "type": "address"
        },
        {
          "internalType": "address",
          "name": "to",
          "type": "address"
        },
        {
          "internalType": "uint256",
          "name": "tokenId",
          "type": "uint256"
        }
      ],
      "name": "transferFrom",
      "outputs": [],
      "stateMutability": "nonpayable",
      "type": "function"
    },
    {
      "inputs": [
        {
          "internalType": "uint256",
          "name": "_listingPrice",
          "type": "uint256"
        }
      ],
      "name": "updateListingPrice",
      "outputs": [],
      "stateMutability": "payable",
      "type": "function"
    },
    {
      "inputs": [
        {
          "internalType": "address",
          "name": "tokenAddress",
          "type": "address"
        }
      ],
      "name": "withdrawToken",
      "outputs": [],
      "stateMutability": "nonpayable",
      "type": "function"
    }
  ],
  "bytecode": "0x60806040526658d15e176280006009553480156200001c57600080fd5b506040518060400160405280600c81526020017f5368617065204d61726b657400000000000000000000000000000000000000008152506040518060400160405280600381526020017f53485000000000000000000000000000000000000000000000000000000000008152508160009080519060200190620000a192919062000104565b508060019080519060200190620000ba92919062000104565b50505033600a60006101000a81548173ffffffffffffffffffffffffffffffffffffffff021916908373ffffffffffffffffffffffffffffffffffffffff16021790555062000219565b8280546200011290620001b4565b90600052602060002090601f01602090048101928262000136576000855562000182565b82601f106200015157805160ff191683800117855562000182565b8280016001018555821562000182579182015b828111156200018157825182559160200191906001019062000164565b5b50905062000191919062000195565b5090565b5b80821115620001b057600081600090555060010162000196565b5090565b60006002820490506001821680620001cd57607f821691505b60208210811415620001e457620001e3620001ea565b5b50919050565b7f4e487b7100000000000000000000000000000000000000000000000000000000600052602260045260246000fd5b6155d780620002296000396000f3fe6080604052600436106101665760003560e01c806370a08231116100d1578063ae677aa31161008a578063c87b56dd11610064578063c87b56dd14610527578063cfd8864c14610564578063e219fc7514610580578063e985e9c51461059c57610166565b8063ae677aa3146104c6578063b88d4fde146104e2578063be9af5361461050b57610166565b806370a08231146103b157806372b3b620146103ee578063894760691461041e5780638ab431421461044757806395d89b4114610472578063a22cb4651461049d57610166565b8063202e374011610123578063202e37401461028f57806323b872dd146102ba5780633ab4dcd5146102e357806342842e0e1461032057806345f8fa80146103495780636352211e1461037457610166565b806301ffc9a71461016b57806306fdde03146101a8578063081812fc146101d3578063095ea7b3146102105780630f08efe01461023957806312e8558514610264575b600080fd5b34801561017757600080fd5b50610192600480360381019061018d9190613e94565b6105d9565b60405161019f9190614769565b60405180910390f35b3480156101b457600080fd5b506101bd6106bb565b6040516101ca9190614784565b60405180910390f35b3480156101df57600080fd5b506101fa60048036038101906101f59190613f7b565b61074d565b6040516102079190614604565b60405180910390f35b34801561021c57600080fd5b5061023760048036038101906102329190613d9c565b610793565b005b34801561024557600080fd5b5061024e6108ab565b60405161025b9190614747565b60405180910390f35b34801561027057600080fd5b50610279610b60565b6040516102869190614ae6565b60405180910390f35b34801561029b57600080fd5b506102a4610b6a565b6040516102b19190614747565b60405180910390f35b3480156102c657600080fd5b506102e160048036038101906102dc9190613c96565b610ea4565b005b3480156102ef57600080fd5b5061030a60048036038101906103059190613ee6565b610f04565b6040516103179190614784565b60405180910390f35b34801561032c57600080fd5b5061034760048036038101906103429190613c96565b610fba565b005b34801561035557600080fd5b5061035e610fda565b60405161036b9190614747565b60405180910390f35b34801561038057600080fd5b5061039b60048036038101906103969190613f7b565b611314565b6040516103a89190614604565b60405180910390f35b3480156103bd57600080fd5b506103d860048036038101906103d39190613c31565b61139b565b6040516103e59190614ae6565b60405180910390f35b61040860048036038101906104039190613f27565b611453565b6040516104159190614ae6565b60405180910390f35b34801561042a57600080fd5b5061044560048036038101906104409190613c31565b611495565b005b34801561045357600080fd5b5061045c611648565b6040516104699190614769565b60405180910390f35b34801561047e57600080fd5b50610487611651565b6040516104949190614784565b60405180910390f35b3480156104a957600080fd5b506104c460048036038101906104bf9190613d60565b6116e3565b005b6104e060048036038101906104db9190613f7b565b6116f9565b005b3480156104ee57600080fd5b5061050960048036038101906105049190613ce5565b611793565b005b61052560048036038101906105209190613f7b565b6117f5565b005b34801561053357600080fd5b5061054e60048036038101906105499190613f7b565b611a4a565b60405161055b9190614784565b60405180910390f35b61057e60048036038101906105799190613dd8565b611b5d565b005b61059a60048036038101906105959190613fcd565b611cf5565b005b3480156105a857600080fd5b506105c360048036038101906105be9190613c5a565b611eea565b6040516105d09190614769565b60405180910390f35b60007f80ac58cd000000000000000000000000000000000000000000000000000000007bffffffffffffffffffffffffffffffffffffffffffffffffffffffff1916827bffffffffffffffffffffffffffffffffffffffffffffffffffffffff191614806106a457507f5b5e139f000000000000000000000000000000000000000000000000000000007bffffffffffffffffffffffffffffffffffffffffffffffffffffffff1916827bffffffffffffffffffffffffffffffffffffffffffffffffffffffff1916145b806106b457506106b382611f7e565b5b9050919050565b6060600080546106ca90614d97565b80601f01602080910402602001604051908101604052809291908181526020018280546106f690614d97565b80156107435780601f1061071857610100808354040283529160200191610743565b820191906000526020600020905b81548152906001019060200180831161072657829003601f168201915b5050505050905090565b600061075882611fe8565b6004600083815260200190815260200160002060009054906101000a900473ffffffffffffffffffffffffffffffffffffffff169050919050565b600061079e82611314565b90508073ffffffffffffffffffffffffffffffffffffffff168373ffffffffffffffffffffffffffffffffffffffff16141561080f576040517f08c379a000000000000000000000000000000000000000000000000000000000815260040161080690614a06565b60405180910390fd5b8073ffffffffffffffffffffffffffffffffffffffff1661082e612033565b73ffffffffffffffffffffffffffffffffffffffff16148061085d575061085c81610857612033565b611eea565b5b61089c576040517f08c379a000000000000000000000000000000000000000000000000000000000815260040161089390614a46565b60405180910390fd5b6108a6838361203b565b505050565b606060006108b960076120f4565b905060006108c760086120f4565b6108d160076120f4565b6108db9190614c65565b90506000808267ffffffffffffffff811115610920577f4e487b7100000000000000000000000000000000000000000000000000000000600052604160045260246000fd5b60405190808252806020026020018201604052801561095957816020015b6109466139ce565b81526020019060019003908161093e5790505b50905060005b84811015610b55573073ffffffffffffffffffffffffffffffffffffffff16600b600060018461098f9190614c0f565b815260200190815260200160002060020160009054906101000a900473ffffffffffffffffffffffffffffffffffffffff1673ffffffffffffffffffffffffffffffffffffffff161415610b425760006001826109ec9190614c0f565b90506000600b60008381526020019081526020016000209050806040518060a0016040529081600082015481526020016001820160009054906101000a900473ffffffffffffffffffffffffffffffffffffffff1673ffffffffffffffffffffffffffffffffffffffff1673ffffffffffffffffffffffffffffffffffffffff1681526020016002820160009054906101000a900473ffffffffffffffffffffffffffffffffffffffff1673ffffffffffffffffffffffffffffffffffffffff1673ffffffffffffffffffffffffffffffffffffffff168152602001600382015481526020016004820160009054906101000a900460ff161515151581525050848681518110610b25577f4e487b7100000000000000000000000000000000000000000000000000000000600052603260045260246000fd5b6020026020010181905250600185610b3d9190614c0f565b945050505b8080610b4d90614dfa565b91505061095f565b508094505050505090565b6000600954905090565b60606000610b7860076120f4565b905060008060005b83811015610c21573373ffffffffffffffffffffffffffffffffffffffff16600b6000600184610bb09190614c0f565b815260200190815260200160002060020160009054906101000a900473ffffffffffffffffffffffffffffffffffffffff1673ffffffffffffffffffffffffffffffffffffffff161415610c0e57600183610c0b9190614c0f565b92505b8080610c1990614dfa565b915050610b80565b5060008267ffffffffffffffff811115610c64577f4e487b7100000000000000000000000000000000000000000000000000000000600052604160045260246000fd5b604051908082528060200260200182016040528015610c9d57816020015b610c8a6139ce565b815260200190600190039081610c825790505b50905060005b84811015610e99573373ffffffffffffffffffffffffffffffffffffffff16600b6000600184610cd39190614c0f565b815260200190815260200160002060020160009054906101000a900473ffffffffffffffffffffffffffffffffffffffff1673ffffffffffffffffffffffffffffffffffffffff161415610e86576000600182610d309190614c0f565b90506000600b60008381526020019081526020016000209050806040518060a0016040529081600082015481526020016001820160009054906101000a900473ffffffffffffffffffffffffffffffffffffffff1673ffffffffffffffffffffffffffffffffffffffff1673ffffffffffffffffffffffffffffffffffffffff1681526020016002820160009054906101000a900473ffffffffffffffffffffffffffffffffffffffff1673ffffffffffffffffffffffffffffffffffffffff1673ffffffffffffffffffffffffffffffffffffffff168152602001600382015481526020016004820160009054906101000a900460ff161515151581525050848681518110610e69577f4e487b7100000000000000000000000000000000000000000000000000000000600052603260045260246000fd5b6020026020010181905250600185610e819190614c0f565b945050505b8080610e9190614dfa565b915050610ca3565b508094505050505090565b610eb5610eaf612033565b82612102565b610ef4576040517f08c379a0000000000000000000000000000000000000000000000000000000008152600401610eeb906147a6565b60405180910390fd5b610eff838383612197565b505050565b600c818051602081018201805184825260208301602085012081835280955050505050506000915090508054610f3990614d97565b80601f0160208091040260200160405190810160405280929190818152602001828054610f6590614d97565b8015610fb25780601f10610f8757610100808354040283529160200191610fb2565b820191906000526020600020905b815481529060010190602001808311610f9557829003601f168201915b505050505081565b610fd583838360405180602001604052806000815250611793565b505050565b60606000610fe860076120f4565b905060008060005b83811015611091573373ffffffffffffffffffffffffffffffffffffffff16600b60006001846110209190614c0f565b815260200190815260200160002060010160009054906101000a900473ffffffffffffffffffffffffffffffffffffffff1673ffffffffffffffffffffffffffffffffffffffff16141561107e5760018361107b9190614c0f565b92505b808061108990614dfa565b915050610ff0565b5060008267ffffffffffffffff8111156110d4577f4e487b7100000000000000000000000000000000000000000000000000000000600052604160045260246000fd5b60405190808252806020026020018201604052801561110d57816020015b6110fa6139ce565b8152602001906001900390816110f25790505b50905060005b84811015611309573373ffffffffffffffffffffffffffffffffffffffff16600b60006001846111439190614c0f565b815260200190815260200160002060010160009054906101000a900473ffffffffffffffffffffffffffffffffffffffff1673ffffffffffffffffffffffffffffffffffffffff1614156112f65760006001826111a09190614c0f565b90506000600b60008381526020019081526020016000209050806040518060a0016040529081600082015481526020016001820160009054906101000a900473ffffffffffffffffffffffffffffffffffffffff1673ffffffffffffffffffffffffffffffffffffffff1673ffffffffffffffffffffffffffffffffffffffff1681526020016002820160009054906101000a900473ffffffffffffffffffffffffffffffffffffffff1673ffffffffffffffffffffffffffffffffffffffff1673ffffffffffffffffffffffffffffffffffffffff168152602001600382015481526020016004820160009054906101000a900460ff1615151515815250508486815181106112d9577f4e487b7100000000000000000000000000000000000000000000000000000000600052603260045260246000fd5b60200260200101819052506001856112f19190614c0f565b945050505b808061130190614dfa565b915050611113565b508094505050505090565b60008061132083612491565b9050600073ffffffffffffffffffffffffffffffffffffffff168173ffffffffffffffffffffffffffffffffffffffff161415611392576040517f08c379a0000000000000000000000000000000000000000000000000000000008152600401611389906149e6565b60405180910390fd5b80915050919050565b60008073ffffffffffffffffffffffffffffffffffffffff168273ffffffffffffffffffffffffffffffffffffffff16141561140c576040517f08c379a000000000000000000000000000000000000000000000000000000000815260040161140390614926565b60405180910390fd5b600360008373ffffffffffffffffffffffffffffffffffffffff1673ffffffffffffffffffffffffffffffffffffffff168152602001908152602001600020549050919050565b600061145f60076124ce565b600061146b60076120f4565b905061147733826124e4565b6114818185612702565b61148b8184612776565b8091505092915050565b60006114c0308373ffffffffffffffffffffffffffffffffffffffff1661297990919063ffffffff16565b11611500576040517f08c379a00000000000000000000000000000000000000000000000000000000081526004016114f790614826565b60405180910390fd5b600a60009054906101000a900473ffffffffffffffffffffffffffffffffffffffff1673ffffffffffffffffffffffffffffffffffffffff163373ffffffffffffffffffffffffffffffffffffffff1614611590576040517f08c379a000000000000000000000000000000000000000000000000000000000815260040161158790614906565b60405180910390fd5b6115e3336115bd308473ffffffffffffffffffffffffffffffffffffffff1661297990919063ffffffff16565b8373ffffffffffffffffffffffffffffffffffffffff16612a3a9092919063ffffffff16565b507fa2bd9fcfcdba69f52bcd9a520846ad4bd685b187483f53efc42d035b2ddebff08161162f308473ffffffffffffffffffffffffffffffffffffffff1661297990919063ffffffff16565b60405161163d92919061471e565b60405180910390a150565b60006001905090565b60606001805461166090614d97565b80601f016020809104026020016040519081016040528092919081815260200182805461168c90614d97565b80156116d95780601f106116ae576101008083540402835291602001916116d9565b820191906000526020600020905b8154815290600101906020018083116116bc57829003601f168201915b5050505050905090565b6116f56116ee612033565b8383612ae2565b5050565b3373ffffffffffffffffffffffffffffffffffffffff16600a60009054906101000a900473ffffffffffffffffffffffffffffffffffffffff1673ffffffffffffffffffffffffffffffffffffffff1614611789576040517f08c379a000000000000000000000000000000000000000000000000000000000815260040161178090614a86565b60405180910390fd5b8060098190555050565b6117a461179e612033565b83612102565b6117e3576040517f08c379a00000000000000000000000000000000000000000000000000000000081526004016117da906147a6565b60405180910390fd5b6117ef84848484612c4f565b50505050565b6000600b600083815260200190815260200160002060030154905061182261181c83611314565b30611eea565b611861576040517f08c379a0000000000000000000000000000000000000000000000000000000008152600401611858906147c6565b60405180910390fd5b600061186c83611314565b905033600b600085815260200190815260200160002060020160006101000a81548173ffffffffffffffffffffffffffffffffffffffff021916908373ffffffffffffffffffffffffffffffffffffffff1602179055506001600b600085815260200190815260200160002060040160006101000a81548160ff0219169083151502179055506000600b600085815260200190815260200160002060010160006101000a81548173ffffffffffffffffffffffffffffffffffffffff021916908373ffffffffffffffffffffffffffffffffffffffff16021790555061195260086124ce565b61195d813385612197565b600a60009054906101000a900473ffffffffffffffffffffffffffffffffffffffff1673ffffffffffffffffffffffffffffffffffffffff166108fc6009549081150290604051600060405180830381858888f193505050501580156119c7573d6000803e3d6000fd5b50600b600084815260200190815260200160002060010160009054906101000a900473ffffffffffffffffffffffffffffffffffffffff1673ffffffffffffffffffffffffffffffffffffffff166108fc349081150290604051600060405180830381858888f19350505050158015611a44573d6000803e3d6000fd5b50505050565b6060611a5582611fe8565b6000600660008481526020019081526020016000208054611a7590614d97565b80601f0160208091040260200160405190810160405280929190818152602001828054611aa190614d97565b8015611aee5780601f10611ac357610100808354040283529160200191611aee565b820191906000526020600020905b815481529060010190602001808311611ad157829003601f168201915b505050505090506000611aff612cab565b9050600081511415611b15578192505050611b58565b600082511115611b4a578082604051602001611b329291906145e0565b60405160208183030381529060405292505050611b58565b611b5384612cc2565b925050505b919050565b60008311611ba0576040517f08c379a0000000000000000000000000000000000000000000000000000000008152600401611b9790614886565b60405180910390fd5b600073ffffffffffffffffffffffffffffffffffffffff168473ffffffffffffffffffffffffffffffffffffffff161415611c10576040517f08c379a0000000000000000000000000000000000000000000000000000000008152600401611c07906149c6565b60405180910390fd5b611c5f33600a60009054906101000a900473ffffffffffffffffffffffffffffffffffffffff16858773ffffffffffffffffffffffffffffffffffffffff16612d2a909392919063ffffffff16565b80600c83604051611c7091906145c9565b90815260200160405180910390209080519060200190611c91929190613a2b565b507f8ed7db30df47fbd87811a5e8a95a94838f0c0241263d9a1865d6a2a3e10516e233600a60009054906101000a900473ffffffffffffffffffffffffffffffffffffffff1685604051611ce79392919061461f565b60405180910390a150505050565b3373ffffffffffffffffffffffffffffffffffffffff16600b600084815260200190815260200160002060020160009054906101000a900473ffffffffffffffffffffffffffffffffffffffff1673ffffffffffffffffffffffffffffffffffffffff1614611d99576040517f08c379a0000000000000000000000000000000000000000000000000000000008152600401611d90906149a6565b60405180910390fd5b6009543414611ddd576040517f08c379a0000000000000000000000000000000000000000000000000000000008152600401611dd490614a26565b60405180910390fd5b6000600b600084815260200190815260200160002060040160006101000a81548160ff02191690831515021790555080600b60008481526020019081526020016000206003018190555033600b600084815260200190815260200160002060010160006101000a81548173ffffffffffffffffffffffffffffffffffffffff021916908373ffffffffffffffffffffffffffffffffffffffff16021790555030600b600084815260200190815260200160002060020160006101000a81548173ffffffffffffffffffffffffffffffffffffffff021916908373ffffffffffffffffffffffffffffffffffffffff160217905550611edb6008612ed7565b611ee63060016116e3565b5050565b6000600560008473ffffffffffffffffffffffffffffffffffffffff1673ffffffffffffffffffffffffffffffffffffffff16815260200190815260200160002060008373ffffffffffffffffffffffffffffffffffffffff1673ffffffffffffffffffffffffffffffffffffffff16815260200190815260200160002060009054906101000a900460ff16905092915050565b60007f01ffc9a7000000000000000000000000000000000000000000000000000000007bffffffffffffffffffffffffffffffffffffffffffffffffffffffff1916827bffffffffffffffffffffffffffffffffffffffffffffffffffffffff1916149050919050565b611ff181612f33565b612030576040517f08c379a0000000000000000000000000000000000000000000000000000000008152600401612027906149e6565b60405180910390fd5b50565b600033905090565b816004600083815260200190815260200160002060006101000a81548173ffffffffffffffffffffffffffffffffffffffff021916908373ffffffffffffffffffffffffffffffffffffffff160217905550808273ffffffffffffffffffffffffffffffffffffffff166120ae83611314565b73ffffffffffffffffffffffffffffffffffffffff167f8c5be1e5ebec7d5bd14f71427d1e84f3dd0314c0f7b2291e5b200ac8c7c3b92560405160405180910390a45050565b600081600001549050919050565b60008061210e83611314565b90508073ffffffffffffffffffffffffffffffffffffffff168473ffffffffffffffffffffffffffffffffffffffff161480612150575061214f8185611eea565b5b8061218e57508373ffffffffffffffffffffffffffffffffffffffff166121768461074d565b73ffffffffffffffffffffffffffffffffffffffff16145b91505092915050565b8273ffffffffffffffffffffffffffffffffffffffff166121b782611314565b73ffffffffffffffffffffffffffffffffffffffff161461220d576040517f08c379a000000000000000000000000000000000000000000000000000000000815260040161220490614846565b60405180910390fd5b600073ffffffffffffffffffffffffffffffffffffffff168273ffffffffffffffffffffffffffffffffffffffff16141561227d576040517f08c379a0000000000000000000000000000000000000000000000000000000008152600401612274906148a6565b60405180910390fd5b61228a8383836001612f74565b8273ffffffffffffffffffffffffffffffffffffffff166122aa82611314565b73ffffffffffffffffffffffffffffffffffffffff1614612300576040517f08c379a00000000000000000000000000000000000000000000000000000000081526004016122f790614846565b60405180910390fd5b6004600082815260200190815260200160002060006101000a81549073ffffffffffffffffffffffffffffffffffffffff02191690556001600360008573ffffffffffffffffffffffffffffffffffffffff1673ffffffffffffffffffffffffffffffffffffffff168152602001908152602001600020600082825403925050819055506001600360008473ffffffffffffffffffffffffffffffffffffffff1673ffffffffffffffffffffffffffffffffffffffff16815260200190815260200160002060008282540192505081905550816002600083815260200190815260200160002060006101000a81548173ffffffffffffffffffffffffffffffffffffffff021916908373ffffffffffffffffffffffffffffffffffffffff160217905550808273ffffffffffffffffffffffffffffffffffffffff168473ffffffffffffffffffffffffffffffffffffffff167fddf252ad1be2c89b69c2b068fc378daa952ba7f163c4a11628f55a4df523b3ef60405160405180910390a461248c838383600161309a565b505050565b60006002600083815260200190815260200160002060009054906101000a900473ffffffffffffffffffffffffffffffffffffffff169050919050565b6001816000016000828254019250508190555050565b600073ffffffffffffffffffffffffffffffffffffffff168273ffffffffffffffffffffffffffffffffffffffff161415612554576040517f08c379a000000000000000000000000000000000000000000000000000000000815260040161254b90614986565b60405180910390fd5b61255d81612f33565b1561259d576040517f08c379a000000000000000000000000000000000000000000000000000000000815260040161259490614866565b60405180910390fd5b6125ab600083836001612f74565b6125b481612f33565b156125f4576040517f08c379a00000000000000000000000000000000000000000000000000000000081526004016125eb90614866565b60405180910390fd5b6001600360008473ffffffffffffffffffffffffffffffffffffffff1673ffffffffffffffffffffffffffffffffffffffff16815260200190815260200160002060008282540192505081905550816002600083815260200190815260200160002060006101000a81548173ffffffffffffffffffffffffffffffffffffffff021916908373ffffffffffffffffffffffffffffffffffffffff160217905550808273ffffffffffffffffffffffffffffffffffffffff16600073ffffffffffffffffffffffffffffffffffffffff167fddf252ad1be2c89b69c2b068fc378daa952ba7f163c4a11628f55a4df523b3ef60405160405180910390a46126fe60008383600161309a565b5050565b61270b82612f33565b61274a576040517f08c379a000000000000000000000000000000000000000000000000000000000815260040161274190614966565b60405180910390fd5b80600660008481526020019081526020016000209080519060200190612771929190613a2b565b505050565b600081116127b9576040517f08c379a00000000000000000000000000000000000000000000000000000000081526004016127b090614ac6565b60405180910390fd5b60095434146127fd576040517f08c379a00000000000000000000000000000000000000000000000000000000081526004016127f490614a26565b60405180910390fd5b6040518060a001604052808381526020013373ffffffffffffffffffffffffffffffffffffffff1681526020013073ffffffffffffffffffffffffffffffffffffffff16815260200182815260200160001515815250600b60008481526020019081526020016000206000820151816000015560208201518160010160006101000a81548173ffffffffffffffffffffffffffffffffffffffff021916908373ffffffffffffffffffffffffffffffffffffffff16021790555060408201518160020160006101000a81548173ffffffffffffffffffffffffffffffffffffffff021916908373ffffffffffffffffffffffffffffffffffffffff1602179055506060820151816003015560808201518160040160006101000a81548160ff0219169083151502179055509050506129363060016116e3565b817fb640004f1d14576d0c209e240cad0410e0d8c0c33a09375861fbadae2588a98d333084600060405161296d949392919061468d565b60405180910390a25050565b6000612984836130a0565b156129a8578173ffffffffffffffffffffffffffffffffffffffff16319050612a34565b8273ffffffffffffffffffffffffffffffffffffffff166370a08231836040518263ffffffff1660e01b81526004016129e19190614604565b60206040518083038186803b1580156129f957600080fd5b505afa158015612a0d573d6000803e3d6000fd5b505050506040513d601f19601f82011682018060405250810190612a319190613fa4565b90505b92915050565b600080821415612a4d5760019050612adb565b612a56846130a0565b15612aab578273ffffffffffffffffffffffffffffffffffffffff166108fc839081150290604051600060405180830381858888f19350505050158015612aa1573d6000803e3d6000fd5b5060019050612adb565b612ad683838673ffffffffffffffffffffffffffffffffffffffff166131229092919063ffffffff16565b600190505b9392505050565b8173ffffffffffffffffffffffffffffffffffffffff168373ffffffffffffffffffffffffffffffffffffffff161415612b51576040517f08c379a0000000000000000000000000000000000000000000000000000000008152600401612b48906148c6565b60405180910390fd5b80600560008573ffffffffffffffffffffffffffffffffffffffff1673ffffffffffffffffffffffffffffffffffffffff16815260200190815260200160002060008473ffffffffffffffffffffffffffffffffffffffff1673ffffffffffffffffffffffffffffffffffffffff16815260200190815260200160002060006101000a81548160ff0219169083151502179055508173ffffffffffffffffffffffffffffffffffffffff168373ffffffffffffffffffffffffffffffffffffffff167f17307eab39ab6107e8899845ad3d59bd9653f200f220920489ca2b5937696c3183604051612c429190614769565b60405180910390a3505050565b612c5a848484612197565b612c66848484846131a8565b612ca5576040517f08c379a0000000000000000000000000000000000000000000000000000000008152600401612c9c90614806565b60405180910390fd5b50505050565b606060405180602001604052806000815250905090565b6060612ccd82611fe8565b6000612cd7612cab565b90506000815111612cf75760405180602001604052806000815250612d22565b80612d018461333f565b604051602001612d129291906145e0565b6040516020818303038152906040525b915050919050565b6000811415612d3857612ed1565b612d41846130a0565b15612ea2573373ffffffffffffffffffffffffffffffffffffffff168373ffffffffffffffffffffffffffffffffffffffff16148015612d815750803410155b612dc0576040517f08c379a0000000000000000000000000000000000000000000000000000000008152600401612db790614946565b60405180910390fd5b3073ffffffffffffffffffffffffffffffffffffffff168273ffffffffffffffffffffffffffffffffffffffff1614612e3b578173ffffffffffffffffffffffffffffffffffffffff166108fc829081150290604051600060405180830381858888f19350505050158015612e39573d6000803e3d6000fd5b505b80341115612e9d573373ffffffffffffffffffffffffffffffffffffffff166108fc612e70833461346390919063ffffffff16565b9081150290604051600060405180830381858888f19350505050158015612e9b573d6000803e3d6000fd5b505b612ed0565b612ecf8383838773ffffffffffffffffffffffffffffffffffffffff16613479909392919063ffffffff16565b5b5b50505050565b60008160000154905060008111612f23576040517f08c379a0000000000000000000000000000000000000000000000000000000008152600401612f1a906147e6565b60405180910390fd5b6001810382600001819055505050565b60008073ffffffffffffffffffffffffffffffffffffffff16612f5583612491565b73ffffffffffffffffffffffffffffffffffffffff1614159050919050565b600181111561309457600073ffffffffffffffffffffffffffffffffffffffff168473ffffffffffffffffffffffffffffffffffffffff16146130085780600360008673ffffffffffffffffffffffffffffffffffffffff1673ffffffffffffffffffffffffffffffffffffffff16815260200190815260200160002060008282546130009190614c65565b925050819055505b600073ffffffffffffffffffffffffffffffffffffffff168373ffffffffffffffffffffffffffffffffffffffff16146130935780600360008573ffffffffffffffffffffffffffffffffffffffff1673ffffffffffffffffffffffffffffffffffffffff168152602001908152602001600020600082825461308b9190614c0f565b925050819055505b5b50505050565b50505050565b60008073ffffffffffffffffffffffffffffffffffffffff168273ffffffffffffffffffffffffffffffffffffffff16148061311b575073eeeeeeeeeeeeeeeeeeeeeeeeeeeeeeeeeeeeeeee73ffffffffffffffffffffffffffffffffffffffff168273ffffffffffffffffffffffffffffffffffffffff16145b9050919050565b6131a38363a9059cbb60e01b848460405160240161314192919061471e565b604051602081830303815290604052907bffffffffffffffffffffffffffffffffffffffffffffffffffffffff19166020820180517bffffffffffffffffffffffffffffffffffffffffffffffffffffffff8381831617835250505050613502565b505050565b60006131c98473ffffffffffffffffffffffffffffffffffffffff166135c9565b15613332578373ffffffffffffffffffffffffffffffffffffffff1663150b7a026131f2612033565b8786866040518563ffffffff1660e01b815260040161321494939291906146d2565b602060405180830381600087803b15801561322e57600080fd5b505af192505050801561325f57506040513d601f19601f8201168201806040525081019061325c9190613ebd565b60015b6132e2573d806000811461328f576040519150601f19603f3d011682016040523d82523d6000602084013e613294565b606091505b506000815114156132da576040517f08c379a00000000000000000000000000000000000000000000000000000000081526004016132d190614806565b60405180910390fd5b805181602001fd5b63150b7a0260e01b7bffffffffffffffffffffffffffffffffffffffffffffffffffffffff1916817bffffffffffffffffffffffffffffffffffffffffffffffffffffffff191614915050613337565b600190505b949350505050565b60606000600161334e846135ec565b01905060008167ffffffffffffffff811115613393577f4e487b7100000000000000000000000000000000000000000000000000000000600052604160045260246000fd5b6040519080825280601f01601f1916602001820160405280156133c55781602001600182028036833780820191505090505b509050600082602001820190505b600115613458578080600190039150507f3031323334353637383961626364656600000000000000000000000000000000600a86061a8153600a8581613442577f4e487b7100000000000000000000000000000000000000000000000000000000600052601260045260246000fd5b049450600085141561345357613458565b6133d3565b819350505050919050565b600081836134719190614c65565b905092915050565b6134fc846323b872dd60e01b85858560405160240161349a93929190614656565b604051602081830303815290604052907bffffffffffffffffffffffffffffffffffffffffffffffffffffffff19166020820180517bffffffffffffffffffffffffffffffffffffffffffffffffffffffff8381831617835250505050613502565b50505050565b6000613564826040518060400160405280602081526020017f5361666545524332303a206c6f772d6c6576656c2063616c6c206661696c65648152508573ffffffffffffffffffffffffffffffffffffffff166138239092919063ffffffff16565b90506000815111156135c457808060200190518101906135849190613e6b565b6135c3576040517f08c379a00000000000000000000000000000000000000000000000000000000081526004016135ba90614aa6565b60405180910390fd5b5b505050565b6000808273ffffffffffffffffffffffffffffffffffffffff163b119050919050565b600080600090507a184f03e93ff9f4daa797ed6e38ed64bf6a1f0100000000000000008310613670577a184f03e93ff9f4daa797ed6e38ed64bf6a1f0100000000000000008381613666577f4e487b7100000000000000000000000000000000000000000000000000000000600052601260045260246000fd5b0492506040810190505b6d04ee2d6d415b85acef810000000083106136d3576d04ee2d6d415b85acef810000000083816136c9577f4e487b7100000000000000000000000000000000000000000000000000000000600052601260045260246000fd5b0492506020810190505b662386f26fc10000831061372857662386f26fc10000838161371e577f4e487b7100000000000000000000000000000000000000000000000000000000600052601260045260246000fd5b0492506010810190505b6305f5e1008310613777576305f5e100838161376d577f4e487b7100000000000000000000000000000000000000000000000000000000600052601260045260246000fd5b0492506008810190505b61271083106137c25761271083816137b8577f4e487b7100000000000000000000000000000000000000000000000000000000600052601260045260246000fd5b0492506004810190505b6064831061380b5760648381613801577f4e487b7100000000000000000000000000000000000000000000000000000000600052601260045260246000fd5b0492506002810190505b600a831061381a576001810190505b80915050919050565b6060613832848460008561383b565b90509392505050565b606082471015613880576040517f08c379a0000000000000000000000000000000000000000000000000000000008152600401613877906148e6565b60405180910390fd5b6000808673ffffffffffffffffffffffffffffffffffffffff1685876040516138a991906145b2565b60006040518083038185875af1925050503d80600081146138e6576040519150601f19603f3d011682016040523d82523d6000602084013e6138eb565b606091505b50915091506138fc87838387613908565b92505050949350505050565b6060831561396b5760008351141561396357613923856135c9565b613962576040517f08c379a000000000000000000000000000000000000000000000000000000000815260040161395990614a66565b60405180910390fd5b5b829050613976565b613975838361397e565b5b949350505050565b6000825111156139915781518083602001fd5b806040517f08c379a00000000000000000000000000000000000000000000000000000000081526004016139c59190614784565b60405180910390fd5b6040518060a0016040528060008152602001600073ffffffffffffffffffffffffffffffffffffffff168152602001600073ffffffffffffffffffffffffffffffffffffffff168152602001600081526020016000151581525090565b828054613a3790614d97565b90600052602060002090601f016020900481019282613a595760008555613aa0565b82601f10613a7257805160ff1916838001178555613aa0565b82800160010185558215613aa0579182015b82811115613a9f578251825591602001919060010190613a84565b5b509050613aad9190613ab1565b5090565b5b80821115613aca576000816000905550600101613ab2565b5090565b6000613ae1613adc84614b26565b614b01565b905082815260208101848484011115613af957600080fd5b613b04848285614d55565b509392505050565b6000613b1f613b1a84614b57565b614b01565b905082815260208101848484011115613b3757600080fd5b613b42848285614d55565b509392505050565b600081359050613b5981615545565b92915050565b600081359050613b6e8161555c565b92915050565b600081519050613b838161555c565b92915050565b600081359050613b9881615573565b92915050565b600081519050613bad81615573565b92915050565b600082601f830112613bc457600080fd5b8135613bd4848260208601613ace565b91505092915050565b600082601f830112613bee57600080fd5b8135613bfe848260208601613b0c565b91505092915050565b600081359050613c168161558a565b92915050565b600081519050613c2b8161558a565b92915050565b600060208284031215613c4357600080fd5b6000613c5184828501613b4a565b91505092915050565b60008060408385031215613c6d57600080fd5b6000613c7b85828601613b4a565b9250506020613c8c85828601613b4a565b9150509250929050565b600080600060608486031215613cab57600080fd5b6000613cb986828701613b4a565b9350506020613cca86828701613b4a565b9250506040613cdb86828701613c07565b9150509250925092565b60008060008060808587031215613cfb57600080fd5b6000613d0987828801613b4a565b9450506020613d1a87828801613b4a565b9350506040613d2b87828801613c07565b925050606085013567ffffffffffffffff811115613d4857600080fd5b613d5487828801613bb3565b91505092959194509250565b60008060408385031215613d7357600080fd5b6000613d8185828601613b4a565b9250506020613d9285828601613b5f565b9150509250929050565b60008060408385031215613daf57600080fd5b6000613dbd85828601613b4a565b9250506020613dce85828601613c07565b9150509250929050565b60008060008060808587031215613dee57600080fd5b6000613dfc87828801613b4a565b9450506020613e0d87828801613c07565b935050604085013567ffffffffffffffff811115613e2a57600080fd5b613e3687828801613bdd565b925050606085013567ffffffffffffffff811115613e5357600080fd5b613e5f87828801613bdd565b91505092959194509250565b600060208284031215613e7d57600080fd5b6000613e8b84828501613b74565b91505092915050565b600060208284031215613ea657600080fd5b6000613eb484828501613b89565b91505092915050565b600060208284031215613ecf57600080fd5b6000613edd84828501613b9e565b91505092915050565b600060208284031215613ef857600080fd5b600082013567ffffffffffffffff811115613f1257600080fd5b613f1e84828501613bdd565b91505092915050565b60008060408385031215613f3a57600080fd5b600083013567ffffffffffffffff811115613f5457600080fd5b613f6085828601613bdd565b9250506020613f7185828601613c07565b9150509250929050565b600060208284031215613f8d57600080fd5b6000613f9b84828501613c07565b91505092915050565b600060208284031215613fb657600080fd5b6000613fc484828501613c1c565b91505092915050565b60008060408385031215613fe057600080fd5b6000613fee85828601613c07565b9250506020613fff85828601613c07565b9150509250929050565b6000614015838361452c565b60a08301905092915050565b61402a81614d1f565b82525050565b61403981614cab565b82525050565b61404881614c99565b82525050565b600061405982614b98565b6140638185614bc6565b935061406e83614b88565b8060005b8381101561409f5781516140868882614009565b975061409183614bb9565b925050600181019050614072565b5085935050505092915050565b6140b581614cbd565b82525050565b6140c481614cbd565b82525050565b60006140d582614ba3565b6140df8185614bd7565b93506140ef818560208601614d64565b6140f881614ed0565b840191505092915050565b600061410e82614ba3565b6141188185614be8565b9350614128818560208601614d64565b80840191505092915050565b600061413f82614bae565b6141498185614bf3565b9350614159818560208601614d64565b61416281614ed0565b840191505092915050565b600061417882614bae565b6141828185614c04565b9350614192818560208601614d64565b80840191505092915050565b60006141ab602d83614bf3565b91506141b682614ee1565b604082019050919050565b60006141ce602f83614bf3565b91506141d982614f30565b604082019050919050565b60006141f1601b83614bf3565b91506141fc82614f7f565b602082019050919050565b6000614214603283614bf3565b915061421f82614fa8565b604082019050919050565b6000614237600f83614bf3565b915061424282614ff7565b602082019050919050565b600061425a602583614bf3565b915061426582615020565b604082019050919050565b600061427d601c83614bf3565b91506142888261506f565b602082019050919050565b60006142a0600e83614bf3565b91506142ab82615098565b602082019050919050565b60006142c3602483614bf3565b91506142ce826150c1565b604082019050919050565b60006142e6601983614bf3565b91506142f182615110565b602082019050919050565b6000614309602683614bf3565b915061431482615139565b604082019050919050565b600061432c602083614bf3565b915061433782615188565b602082019050919050565b600061434f602983614bf3565b915061435a826151b1565b604082019050919050565b6000614372602b83614bf3565b915061437d82615200565b604082019050919050565b6000614395602e83614bf3565b91506143a08261524f565b604082019050919050565b60006143b8602083614bf3565b91506143c38261529e565b602082019050919050565b60006143db602a83614bf3565b91506143e6826152c7565b604082019050919050565b60006143fe600d83614bf3565b915061440982615316565b602082019050919050565b6000614421601883614bf3565b915061442c8261533f565b602082019050919050565b6000614444602183614bf3565b915061444f82615368565b604082019050919050565b6000614467602483614bf3565b9150614472826153b7565b604082019050919050565b600061448a603d83614bf3565b915061449582615406565b604082019050919050565b60006144ad601d83614bf3565b91506144b882615455565b602082019050919050565b60006144d0603083614bf3565b91506144db8261547e565b604082019050919050565b60006144f3602a83614bf3565b91506144fe826154cd565b604082019050919050565b6000614516601c83614bf3565b91506145218261551c565b602082019050919050565b60a0820160008201516145426000850182614594565b5060208201516145556020850182614030565b5060408201516145686040850182614030565b50606082015161457b6060850182614594565b50608082015161458e60808501826140ac565b50505050565b61459d81614d15565b82525050565b6145ac81614d15565b82525050565b60006145be8284614103565b915081905092915050565b60006145d5828461416d565b915081905092915050565b60006145ec828561416d565b91506145f8828461416d565b91508190509392505050565b6000602082019050614619600083018461403f565b92915050565b6000606082019050614634600083018661403f565b6146416020830185614021565b61464e60408301846145a3565b949350505050565b600060608201905061466b600083018661403f565b614678602083018561403f565b61468560408301846145a3565b949350505050565b60006080820190506146a2600083018761403f565b6146af602083018661403f565b6146bc60408301856145a3565b6146c960608301846140bb565b95945050505050565b60006080820190506146e7600083018761403f565b6146f4602083018661403f565b61470160408301856145a3565b818103606083015261471381846140ca565b905095945050505050565b6000604082019050614733600083018561403f565b61474060208301846145a3565b9392505050565b60006020820190508181036000830152614761818461404e565b905092915050565b600060208201905061477e60008301846140bb565b92915050565b6000602082019050818103600083015261479e8184614134565b905092915050565b600060208201905081810360008301526147bf8161419e565b9050919050565b600060208201905081810360008301526147df816141c1565b9050919050565b600060208201905081810360008301526147ff816141e4565b9050919050565b6000602082019050818103600083015261481f81614207565b9050919050565b6000602082019050818103600083015261483f8161422a565b9050919050565b6000602082019050818103600083015261485f8161424d565b9050919050565b6000602082019050818103600083015261487f81614270565b9050919050565b6000602082019050818103600083015261489f81614293565b9050919050565b600060208201905081810360008301526148bf816142b6565b9050919050565b600060208201905081810360008301526148df816142d9565b9050919050565b600060208201905081810360008301526148ff816142fc565b9050919050565b6000602082019050818103600083015261491f8161431f565b9050919050565b6000602082019050818103600083015261493f81614342565b9050919050565b6000602082019050818103600083015261495f81614365565b9050919050565b6000602082019050818103600083015261497f81614388565b9050919050565b6000602082019050818103600083015261499f816143ab565b9050919050565b600060208201905081810360008301526149bf816143ce565b9050919050565b600060208201905081810360008301526149df816143f1565b9050919050565b600060208201905081810360008301526149ff81614414565b9050919050565b60006020820190508181036000830152614a1f81614437565b9050919050565b60006020820190508181036000830152614a3f8161445a565b9050919050565b60006020820190508181036000830152614a5f8161447d565b9050919050565b60006020820190508181036000830152614a7f816144a0565b9050919050565b60006020820190508181036000830152614a9f816144c3565b9050919050565b60006020820190508181036000830152614abf816144e6565b9050919050565b60006020820190508181036000830152614adf81614509565b9050919050565b6000602082019050614afb60008301846145a3565b92915050565b6000614b0b614b1c565b9050614b178282614dc9565b919050565b6000604051905090565b600067ffffffffffffffff821115614b4157614b40614ea1565b5b614b4a82614ed0565b9050602081019050919050565b600067ffffffffffffffff821115614b7257614b71614ea1565b5b614b7b82614ed0565b9050602081019050919050565b6000819050602082019050919050565b600081519050919050565b600081519050919050565b600081519050919050565b6000602082019050919050565b600082825260208201905092915050565b600082825260208201905092915050565b600081905092915050565b600082825260208201905092915050565b600081905092915050565b6000614c1a82614d15565b9150614c2583614d15565b9250827fffffffffffffffffffffffffffffffffffffffffffffffffffffffffffffffff03821115614c5a57614c59614e43565b5b828201905092915050565b6000614c7082614d15565b9150614c7b83614d15565b925082821015614c8e57614c8d614e43565b5b828203905092915050565b6000614ca482614cf5565b9050919050565b6000614cb682614cf5565b9050919050565b60008115159050919050565b60007fffffffff0000000000000000000000000000000000000000000000000000000082169050919050565b600073ffffffffffffffffffffffffffffffffffffffff82169050919050565b6000819050919050565b6000614d2a82614d31565b9050919050565b6000614d3c82614d43565b9050919050565b6000614d4e82614cf5565b9050919050565b82818337600083830152505050565b60005b83811015614d82578082015181840152602081019050614d67565b83811115614d91576000848401525b50505050565b60006002820490506001821680614daf57607f821691505b60208210811415614dc357614dc2614e72565b5b50919050565b614dd282614ed0565b810181811067ffffffffffffffff82111715614df157614df0614ea1565b5b80604052505050565b6000614e0582614d15565b91507fffffffffffffffffffffffffffffffffffffffffffffffffffffffffffffffff821415614e3857614e37614e43565b5b600182019050919050565b7f4e487b7100000000000000000000000000000000000000000000000000000000600052601160045260246000fd5b7f4e487b7100000000000000000000000000000000000000000000000000000000600052602260045260246000fd5b7f4e487b7100000000000000000000000000000000000000000000000000000000600052604160045260246000fd5b6000601f19601f8301169050919050565b7f4552433732313a2063616c6c6572206973206e6f7420746f6b656e206f776e6560008201527f72206f7220617070726f76656400000000000000000000000000000000000000602082015250565b7f546865206f776e657220686173206e6f7420617070726f76656420746865207460008201527f6f6b656e20696420746f2073656c6c0000000000000000000000000000000000602082015250565b7f436f756e7465723a2064656372656d656e74206f766572666c6f770000000000600082015250565b7f4552433732313a207472616e7366657220746f206e6f6e20455243373231526560008201527f63656976657220696d706c656d656e7465720000000000000000000000000000602082015250565b7f62616c616e6365206973207a65726f0000000000000000000000000000000000600082015250565b7f4552433732313a207472616e736665722066726f6d20696e636f72726563742060008201527f6f776e6572000000000000000000000000000000000000000000000000000000602082015250565b7f4552433732313a20746f6b656e20616c7265616479206d696e74656400000000600082015250565b7f696e76616c696420616d6f756e74000000000000000000000000000000000000600082015250565b7f4552433732313a207472616e7366657220746f20746865207a65726f2061646460008201527f7265737300000000000000000000000000000000000000000000000000000000602082015250565b7f4552433732313a20617070726f766520746f2063616c6c657200000000000000600082015250565b7f416464726573733a20696e73756666696369656e742062616c616e636520666f60008201527f722063616c6c0000000000000000000000000000000000000000000000000000602082015250565b7f6d73672e73656e646572206d757374206265206f776e65722061646472657373600082015250565b7f4552433732313a2061646472657373207a65726f206973206e6f74206120766160008201527f6c6964206f776e65720000000000000000000000000000000000000000000000602082015250565b7f57726f6e6720757365616765206f66204554482e756e6976657273616c54726160008201527f6e7366657246726f6d2829000000000000000000000000000000000000000000602082015250565b7f45524337323155524953746f726167653a2055524920736574206f66206e6f6e60008201527f6578697374656e7420746f6b656e000000000000000000000000000000000000602082015250565b7f4552433732313a206d696e7420746f20746865207a65726f2061646472657373600082015250565b7f4f6e6c79206974656d206f776e65722063616e20706572666f726d207468697360008201527f206f7065726174696f6e00000000000000000000000000000000000000000000602082015250565b7f696e76616c696420746f6b656e00000000000000000000000000000000000000600082015250565b7f4552433732313a20696e76616c696420746f6b656e2049440000000000000000600082015250565b7f4552433732313a20617070726f76616c20746f2063757272656e74206f776e6560008201527f7200000000000000000000000000000000000000000000000000000000000000602082015250565b7f5072696365206d75737420626520657175616c20746f206c697374696e67207060008201527f7269636500000000000000000000000000000000000000000000000000000000602082015250565b7f4552433732313a20617070726f76652063616c6c6572206973206e6f7420746f60008201527f6b656e206f776e6572206f7220617070726f76656420666f7220616c6c000000602082015250565b7f416464726573733a2063616c6c20746f206e6f6e2d636f6e7472616374000000600082015250565b7f4f6e6c79206d61726b6574706c616365206f776e65722063616e20757064617460008201527f65206c697374696e672070726963652e00000000000000000000000000000000602082015250565b7f5361666545524332303a204552433230206f7065726174696f6e20646964206e60008201527f6f74207375636365656400000000000000000000000000000000000000000000602082015250565b7f5072696365206d757374206265206174206c6561737420312077656900000000600082015250565b61554e81614c99565b811461555957600080fd5b50565b61556581614cbd565b811461557057600080fd5b50565b61557c81614cc9565b811461558757600080fd5b50565b61559381614d15565b811461559e57600080fd5b5056fea264697066735822122069dc1c46b9315d53707dd72d6a570c9e4bd7031b026fee709c13762a8213d8dd64736f6c63430008040033",
  "linkReferences": {},
  "deployedLinkReferences": {}
}