{
  "_format": "hh-sol-artifact-1",
  "contractName": "NFTMarketplace",
  "sourceName": "contracts/NFTMarketplace.sol",
  "abi": [
    {
      "inputs": [],
      "stateMutability": "nonpayable",
      "type": "constructor"
    },
    {
      "anonymous": false,
      "inputs": [
        {
          "indexed": true,
          "internalType": "address",
          "name": "owner",
          "type": "address"
        },
        {
          "indexed": true,
          "internalType": "address",
          "name": "approved",
          "type": "address"
        },
        {
          "indexed": true,
          "internalType": "uint256",
          "name": "tokenId",
          "type": "uint256"
        }
      ],
      "name": "Approval",
      "type": "event"
    },
    {
      "anonymous": false,
      "inputs": [
        {
          "indexed": true,
          "internalType": "address",
          "name": "owner",
          "type": "address"
        },
        {
          "indexed": true,
          "internalType": "address",
          "name": "operator",
          "type": "address"
        },
        {
          "indexed": false,
          "internalType": "bool",
          "name": "approved",
          "type": "bool"
        }
      ],
      "name": "ApprovalForAll",
      "type": "event"
    },
    {
      "anonymous": false,
      "inputs": [
        {
          "indexed": true,
          "internalType": "uint256",
          "name": "tokenId",
          "type": "uint256"
        },
        {
          "indexed": false,
          "internalType": "address",
          "name": "seller",
          "type": "address"
        },
        {
          "indexed": false,
          "internalType": "address",
          "name": "owner",
          "type": "address"
        },
        {
          "indexed": false,
          "internalType": "uint256",
          "name": "price",
          "type": "uint256"
        },
        {
          "indexed": false,
          "internalType": "bool",
          "name": "sold",
          "type": "bool"
        }
      ],
      "name": "MarketItemCreated",
      "type": "event"
    },
    {
      "anonymous": false,
      "inputs": [
        {
          "indexed": false,
          "internalType": "address",
          "name": "from",
          "type": "address"
        },
        {
          "indexed": false,
          "internalType": "address",
          "name": "to",
          "type": "address"
        },
        {
          "indexed": false,
          "internalType": "uint256",
          "name": "amount",
          "type": "uint256"
        }
      ],
      "name": "Payment",
      "type": "event"
    },
    {
      "anonymous": false,
      "inputs": [
        {
          "indexed": false,
          "internalType": "address",
          "name": "tokenContract",
          "type": "address"
        },
        {
          "indexed": false,
          "internalType": "uint256",
          "name": "amount",
          "type": "uint256"
        }
      ],
      "name": "TokenWithdrawn",
      "type": "event"
    },
    {
      "anonymous": false,
      "inputs": [
        {
          "indexed": true,
          "internalType": "address",
          "name": "from",
          "type": "address"
        },
        {
          "indexed": true,
          "internalType": "address",
          "name": "to",
          "type": "address"
        },
        {
          "indexed": true,
          "internalType": "uint256",
          "name": "tokenId",
          "type": "uint256"
        }
      ],
      "name": "Transfer",
      "type": "event"
    },
    {
      "inputs": [
        {
          "internalType": "address",
          "name": "to",
          "type": "address"
        },
        {
          "internalType": "uint256",
          "name": "tokenId",
          "type": "uint256"
        }
      ],
      "name": "approve",
      "outputs": [],
      "stateMutability": "nonpayable",
      "type": "function"
    },
    {
      "inputs": [
        {
          "internalType": "address",
          "name": "owner",
          "type": "address"
        }
      ],
      "name": "balanceOf",
      "outputs": [
        {
          "internalType": "uint256",
          "name": "",
          "type": "uint256"
        }
      ],
      "stateMutability": "view",
      "type": "function"
    },
    {
      "inputs": [
        {
          "internalType": "uint256",
          "name": "tokenId",
          "type": "uint256"
        }
      ],
      "name": "createMarketSale",
      "outputs": [],
      "stateMutability": "payable",
      "type": "function"
    },
    {
      "inputs": [
        {
          "internalType": "string",
          "name": "tokenURI",
          "type": "string"
        },
        {
          "internalType": "uint256",
          "name": "price",
          "type": "uint256"
        }
      ],
      "name": "createToken",
      "outputs": [
        {
          "internalType": "uint256",
          "name": "",
          "type": "uint256"
        }
      ],
      "stateMutability": "payable",
      "type": "function"
    },
    {
      "inputs": [],
      "name": "fetchItemsListed",
      "outputs": [
        {
          "components": [
            {
              "internalType": "uint256",
              "name": "tokenId",
              "type": "uint256"
            },
            {
              "internalType": "address payable",
              "name": "seller",
              "type": "address"
            },
            {
              "internalType": "address payable",
              "name": "owner",
              "type": "address"
            },
            {
              "internalType": "uint256",
              "name": "price",
              "type": "uint256"
            },
            {
              "internalType": "bool",
              "name": "sold",
              "type": "bool"
            }
          ],
          "internalType": "struct NFTMarketplace.MarketItem[]",
          "name": "",
          "type": "tuple[]"
        }
      ],
      "stateMutability": "view",
      "type": "function"
    },
    {
      "inputs": [],
      "name": "fetchMarketItems",
      "outputs": [
        {
          "components": [
            {
              "internalType": "uint256",
              "name": "tokenId",
              "type": "uint256"
            },
            {
              "internalType": "address payable",
              "name": "seller",
              "type": "address"
            },
            {
              "internalType": "address payable",
              "name": "owner",
              "type": "address"
            },
            {
              "internalType": "uint256",
              "name": "price",
              "type": "uint256"
            },
            {
              "internalType": "bool",
              "name": "sold",
              "type": "bool"
            }
          ],
          "internalType": "struct NFTMarketplace.MarketItem[]",
          "name": "",
          "type": "tuple[]"
        }
      ],
      "stateMutability": "view",
      "type": "function"
    },
    {
      "inputs": [],
      "name": "fetchMyNFTs",
      "outputs": [
        {
          "components": [
            {
              "internalType": "uint256",
              "name": "tokenId",
              "type": "uint256"
            },
            {
              "internalType": "address payable",
              "name": "seller",
              "type": "address"
            },
            {
              "internalType": "address payable",
              "name": "owner",
              "type": "address"
            },
            {
              "internalType": "uint256",
              "name": "price",
              "type": "uint256"
            },
            {
              "internalType": "bool",
              "name": "sold",
              "type": "bool"
            }
          ],
          "internalType": "struct NFTMarketplace.MarketItem[]",
          "name": "",
          "type": "tuple[]"
        }
      ],
      "stateMutability": "view",
      "type": "function"
    },
    {
      "inputs": [
        {
          "internalType": "uint256",
          "name": "tokenId",
          "type": "uint256"
        }
      ],
      "name": "getApproved",
      "outputs": [
        {
          "internalType": "address",
          "name": "",
          "type": "address"
        }
      ],
      "stateMutability": "view",
      "type": "function"
    },
    {
      "inputs": [],
      "name": "getListingPrice",
      "outputs": [
        {
          "internalType": "uint256",
          "name": "",
          "type": "uint256"
        }
      ],
      "stateMutability": "view",
      "type": "function"
    },
    {
      "inputs": [
        {
          "internalType": "address",
          "name": "owner",
          "type": "address"
        },
        {
          "internalType": "address",
          "name": "operator",
          "type": "address"
        }
      ],
      "name": "isApprovedForAll",
      "outputs": [
        {
          "internalType": "bool",
          "name": "",
          "type": "bool"
        }
      ],
      "stateMutability": "view",
      "type": "function"
    },
    {
      "inputs": [],
      "name": "name",
      "outputs": [
        {
          "internalType": "string",
          "name": "",
          "type": "string"
        }
      ],
      "stateMutability": "view",
      "type": "function"
    },
    {
      "inputs": [
        {
          "internalType": "uint256",
          "name": "tokenId",
          "type": "uint256"
        }
      ],
      "name": "ownerOf",
      "outputs": [
        {
          "internalType": "address",
          "name": "",
          "type": "address"
        }
      ],
      "stateMutability": "view",
      "type": "function"
    },
    {
      "inputs": [
        {
          "internalType": "string",
          "name": "",
          "type": "string"
        }
      ],
      "name": "purchaseInfo",
      "outputs": [
        {
          "internalType": "uint256",
          "name": "",
          "type": "uint256"
        }
      ],
      "stateMutability": "view",
      "type": "function"
    },
    {
      "inputs": [
        {
          "internalType": "address",
          "name": "receiveToken",
          "type": "address"
        },
        {
          "internalType": "uint256",
          "name": "amount",
          "type": "uint256"
        },
        {
          "internalType": "string",
          "name": "paymentId",
          "type": "string"
        },
        {
          "internalType": "string",
          "name": "optional",
          "type": "string"
        },
        {
          "internalType": "bytes",
          "name": "reserved",
          "type": "bytes"
        }
      ],
      "name": "receivePayment",
      "outputs": [],
      "stateMutability": "payable",
      "type": "function"
    },
    {
      "inputs": [
        {
          "internalType": "uint256",
          "name": "tokenId",
          "type": "uint256"
        },
        {
          "internalType": "uint256",
          "name": "price",
          "type": "uint256"
        }
      ],
      "name": "resellToken",
      "outputs": [],
      "stateMutability": "payable",
      "type": "function"
    },
    {
      "inputs": [
        {
          "internalType": "address",
          "name": "from",
          "type": "address"
        },
        {
          "internalType": "address",
          "name": "to",
          "type": "address"
        },
        {
          "internalType": "uint256",
          "name": "tokenId",
          "type": "uint256"
        }
      ],
      "name": "safeTransferFrom",
      "outputs": [],
      "stateMutability": "nonpayable",
      "type": "function"
    },
    {
      "inputs": [
        {
          "internalType": "address",
          "name": "from",
          "type": "address"
        },
        {
          "internalType": "address",
          "name": "to",
          "type": "address"
        },
        {
          "internalType": "uint256",
          "name": "tokenId",
          "type": "uint256"
        },
        {
          "internalType": "bytes",
          "name": "data",
          "type": "bytes"
        }
      ],
      "name": "safeTransferFrom",
      "outputs": [],
      "stateMutability": "nonpayable",
      "type": "function"
    },
    {
      "inputs": [
        {
          "internalType": "address",
          "name": "operator",
          "type": "address"
        },
        {
          "internalType": "bool",
          "name": "approved",
          "type": "bool"
        }
      ],
      "name": "setApprovalForAll",
      "outputs": [],
      "stateMutability": "nonpayable",
      "type": "function"
    },
    {
      "inputs": [],
      "name": "supportSlashExtensionInterface",
      "outputs": [
        {
          "internalType": "uint8",
          "name": "",
          "type": "uint8"
        }
      ],
      "stateMutability": "pure",
      "type": "function"
    },
    {
      "inputs": [
        {
          "internalType": "bytes4",
          "name": "interfaceId",
          "type": "bytes4"
        }
      ],
      "name": "supportsInterface",
      "outputs": [
        {
          "internalType": "bool",
          "name": "",
          "type": "bool"
        }
      ],
      "stateMutability": "view",
      "type": "function"
    },
    {
      "inputs": [],
      "name": "symbol",
      "outputs": [
        {
          "internalType": "string",
          "name": "",
          "type": "string"
        }
      ],
      "stateMutability": "view",
      "type": "function"
    },
    {
      "inputs": [
        {
          "internalType": "uint256",
          "name": "tokenId",
          "type": "uint256"
        }
      ],
      "name": "tokenURI",
      "outputs": [
        {
          "internalType": "string",
          "name": "",
          "type": "string"
        }
      ],
      "stateMutability": "view",
      "type": "function"
    },
    {
      "inputs": [
        {
          "internalType": "address",
          "name": "from",
          "type": "address"
        },
        {
          "internalType": "address",
          "name": "to",
          "type": "address"
        },
        {
          "internalType": "uint256",
          "name": "tokenId",
          "type": "uint256"
        }
      ],
      "name": "transferFrom",
      "outputs": [],
      "stateMutability": "nonpayable",
      "type": "function"
    },
    {
      "inputs": [
        {
          "internalType": "uint256",
          "name": "_listingPrice",
          "type": "uint256"
        }
      ],
      "name": "updateListingPrice",
      "outputs": [],
      "stateMutability": "payable",
      "type": "function"
    },
    {
      "inputs": [
        {
          "internalType": "address",
          "name": "tokenAddress",
          "type": "address"
        }
      ],
      "name": "withdrawToken",
      "outputs": [],
      "stateMutability": "nonpayable",
      "type": "function"
    }
  ],
  "bytecode": "0x60806040526658d15e176280006009553480156200001c57600080fd5b506040518060400160405280600c81526020017f5368617065204d61726b657400000000000000000000000000000000000000008152506040518060400160405280600381526020017f53485000000000000000000000000000000000000000000000000000000000008152508160009080519060200190620000a192919062000104565b508060019080519060200190620000ba92919062000104565b50505033600a60006101000a81548173ffffffffffffffffffffffffffffffffffffffff021916908373ffffffffffffffffffffffffffffffffffffffff16021790555062000219565b8280546200011290620001b4565b90600052602060002090601f01602090048101928262000136576000855562000182565b82601f106200015157805160ff191683800117855562000182565b8280016001018555821562000182579182015b828111156200018157825182559160200191906001019062000164565b5b50905062000191919062000195565b5090565b5b80821115620001b057600081600090555060010162000196565b5090565b60006002820490506001821680620001cd57607f821691505b60208210811415620001e457620001e3620001ea565b5b50919050565b7f4e487b7100000000000000000000000000000000000000000000000000000000600052602260045260246000fd5b61567780620002296000396000f3fe6080604052600436106101665760003560e01c80636352211e116100d1578063a22cb4651161008a578063be9af53611610064578063be9af53614610527578063c87b56dd14610543578063e219fc7514610580578063e985e9c51461059c57610166565b8063a22cb465146104b9578063ae677aa3146104e2578063b88d4fde146104fe57610166565b80636352211e1461039057806370a08231146103cd57806372b3b6201461040a578063894760691461043a5780638ab431421461046357806395d89b411461048e57610166565b806312e855851161012357806312e8558514610280578063202e3740146102ab57806323b872dd146102d65780633ab4dcd5146102ff57806342842e0e1461033c57806345f8fa801461036557610166565b8063012a66311461016b57806301ffc9a71461018757806306fdde03146101c4578063081812fc146101ef578063095ea7b31461022c5780630f08efe014610255575b600080fd5b61018560048036038101906101809190613de9565b6105d9565b005b34801561019357600080fd5b506101ae60048036038101906101a99190613ed4565b610788565b6040516101bb91906147e1565b60405180910390f35b3480156101d057600080fd5b506101d961086a565b6040516101e691906147fc565b60405180910390f35b3480156101fb57600080fd5b5061021660048036038101906102119190613fe4565b6108fc565b604051610223919061467c565b60405180910390f35b34801561023857600080fd5b50610253600480360381019061024e9190613dad565b610942565b005b34801561026157600080fd5b5061026a610a5a565b60405161027791906147bf565b60405180910390f35b34801561028c57600080fd5b50610295610d0f565b6040516102a29190614b5e565b60405180910390f35b3480156102b757600080fd5b506102c0610d19565b6040516102cd91906147bf565b60405180910390f35b3480156102e257600080fd5b506102fd60048036038101906102f89190613ca7565b611053565b005b34801561030b57600080fd5b5061032660048036038101906103219190613f26565b6110b3565b6040516103339190614b5e565b60405180910390f35b34801561034857600080fd5b50610363600480360381019061035e9190613ca7565b6110e1565b005b34801561037157600080fd5b5061037a611101565b60405161038791906147bf565b60405180910390f35b34801561039c57600080fd5b506103b760048036038101906103b29190613fe4565b61143b565b6040516103c4919061467c565b60405180910390f35b3480156103d957600080fd5b506103f460048036038101906103ef9190613c42565b6114c2565b6040516104019190614b5e565b60405180910390f35b610424600480360381019061041f9190613f67565b61157a565b6040516104319190614b5e565b60405180910390f35b34801561044657600080fd5b50610461600480360381019061045c9190613c42565b6115bc565b005b34801561046f57600080fd5b5061047861176f565b6040516104859190614b79565b60405180910390f35b34801561049a57600080fd5b506104a3611778565b6040516104b091906147fc565b60405180910390f35b3480156104c557600080fd5b506104e060048036038101906104db9190613d71565b61180a565b005b6104fc60048036038101906104f79190613fe4565b611820565b005b34801561050a57600080fd5b5061052560048036038101906105209190613cf6565b6118ba565b005b610541600480360381019061053c9190613fe4565b61191c565b005b34801561054f57600080fd5b5061056a60048036038101906105659190613fe4565b611b71565b60405161057791906147fc565b60405180910390f35b61059a60048036038101906105959190614036565b611c84565b005b3480156105a857600080fd5b506105c360048036038101906105be9190613c6b565b611e79565b6040516105d091906147e1565b60405180910390f35b6000851161061c576040517f08c379a0000000000000000000000000000000000000000000000000000000008152600401610613906148fe565b60405180910390fd5b600073ffffffffffffffffffffffffffffffffffffffff168673ffffffffffffffffffffffffffffffffffffffff16141561068c576040517f08c379a000000000000000000000000000000000000000000000000000000000815260040161068390614a3e565b60405180910390fd5b6106db33600a60009054906101000a900473ffffffffffffffffffffffffffffffffffffffff16878973ffffffffffffffffffffffffffffffffffffffff16611f0d909392919063ffffffff16565b600082828101906106ec9190613fbb565b90506106fb816000015161191c565b8060000151600c866040516107109190614641565b9081526020016040518091039020819055507f8ed7db30df47fbd87811a5e8a95a94838f0c0241263d9a1865d6a2a3e10516e233600a60009054906101000a900473ffffffffffffffffffffffffffffffffffffffff168860405161077793929190614697565b60405180910390a150505050505050565b60007f80ac58cd000000000000000000000000000000000000000000000000000000007bffffffffffffffffffffffffffffffffffffffffffffffffffffffff1916827bffffffffffffffffffffffffffffffffffffffffffffffffffffffff1916148061085357507f5b5e139f000000000000000000000000000000000000000000000000000000007bffffffffffffffffffffffffffffffffffffffffffffffffffffffff1916827bffffffffffffffffffffffffffffffffffffffffffffffffffffffff1916145b806108635750610862826120ba565b5b9050919050565b60606000805461087990614e37565b80601f01602080910402602001604051908101604052809291908181526020018280546108a590614e37565b80156108f25780601f106108c7576101008083540402835291602001916108f2565b820191906000526020600020905b8154815290600101906020018083116108d557829003601f168201915b5050505050905090565b600061090782612124565b6004600083815260200190815260200160002060009054906101000a900473ffffffffffffffffffffffffffffffffffffffff169050919050565b600061094d8261143b565b90508073ffffffffffffffffffffffffffffffffffffffff168373ffffffffffffffffffffffffffffffffffffffff1614156109be576040517f08c379a00000000000000000000000000000000000000000000000000000000081526004016109b590614a7e565b60405180910390fd5b8073ffffffffffffffffffffffffffffffffffffffff166109dd61216f565b73ffffffffffffffffffffffffffffffffffffffff161480610a0c5750610a0b81610a0661216f565b611e79565b5b610a4b576040517f08c379a0000000000000000000000000000000000000000000000000000000008152600401610a4290614abe565b60405180910390fd5b610a558383612177565b505050565b60606000610a686007612230565b90506000610a766008612230565b610a806007612230565b610a8a9190614cf8565b90506000808267ffffffffffffffff811115610acf577f4e487b7100000000000000000000000000000000000000000000000000000000600052604160045260246000fd5b604051908082528060200260200182016040528015610b0857816020015b610af561395d565b815260200190600190039081610aed5790505b50905060005b84811015610d04573073ffffffffffffffffffffffffffffffffffffffff16600b6000600184610b3e9190614ca2565b815260200190815260200160002060020160009054906101000a900473ffffffffffffffffffffffffffffffffffffffff1673ffffffffffffffffffffffffffffffffffffffff161415610cf1576000600182610b9b9190614ca2565b90506000600b60008381526020019081526020016000209050806040518060a0016040529081600082015481526020016001820160009054906101000a900473ffffffffffffffffffffffffffffffffffffffff1673ffffffffffffffffffffffffffffffffffffffff1673ffffffffffffffffffffffffffffffffffffffff1681526020016002820160009054906101000a900473ffffffffffffffffffffffffffffffffffffffff1673ffffffffffffffffffffffffffffffffffffffff1673ffffffffffffffffffffffffffffffffffffffff168152602001600382015481526020016004820160009054906101000a900460ff161515151581525050848681518110610cd4577f4e487b7100000000000000000000000000000000000000000000000000000000600052603260045260246000fd5b6020026020010181905250600185610cec9190614ca2565b945050505b8080610cfc90614e9a565b915050610b0e565b508094505050505090565b6000600954905090565b60606000610d276007612230565b905060008060005b83811015610dd0573373ffffffffffffffffffffffffffffffffffffffff16600b6000600184610d5f9190614ca2565b815260200190815260200160002060020160009054906101000a900473ffffffffffffffffffffffffffffffffffffffff1673ffffffffffffffffffffffffffffffffffffffff161415610dbd57600183610dba9190614ca2565b92505b8080610dc890614e9a565b915050610d2f565b5060008267ffffffffffffffff811115610e13577f4e487b7100000000000000000000000000000000000000000000000000000000600052604160045260246000fd5b604051908082528060200260200182016040528015610e4c57816020015b610e3961395d565b815260200190600190039081610e315790505b50905060005b84811015611048573373ffffffffffffffffffffffffffffffffffffffff16600b6000600184610e829190614ca2565b815260200190815260200160002060020160009054906101000a900473ffffffffffffffffffffffffffffffffffffffff1673ffffffffffffffffffffffffffffffffffffffff161415611035576000600182610edf9190614ca2565b90506000600b60008381526020019081526020016000209050806040518060a0016040529081600082015481526020016001820160009054906101000a900473ffffffffffffffffffffffffffffffffffffffff1673ffffffffffffffffffffffffffffffffffffffff1673ffffffffffffffffffffffffffffffffffffffff1681526020016002820160009054906101000a900473ffffffffffffffffffffffffffffffffffffffff1673ffffffffffffffffffffffffffffffffffffffff1673ffffffffffffffffffffffffffffffffffffffff168152602001600382015481526020016004820160009054906101000a900460ff161515151581525050848681518110611018577f4e487b7100000000000000000000000000000000000000000000000000000000600052603260045260246000fd5b60200260200101819052506001856110309190614ca2565b945050505b808061104090614e9a565b915050610e52565b508094505050505090565b61106461105e61216f565b8261223e565b6110a3576040517f08c379a000000000000000000000000000000000000000000000000000000000815260040161109a9061481e565b60405180910390fd5b6110ae8383836122d3565b505050565b600c818051602081018201805184825260208301602085012081835280955050505050506000915090505481565b6110fc838383604051806020016040528060008152506118ba565b505050565b6060600061110f6007612230565b905060008060005b838110156111b8573373ffffffffffffffffffffffffffffffffffffffff16600b60006001846111479190614ca2565b815260200190815260200160002060010160009054906101000a900473ffffffffffffffffffffffffffffffffffffffff1673ffffffffffffffffffffffffffffffffffffffff1614156111a5576001836111a29190614ca2565b92505b80806111b090614e9a565b915050611117565b5060008267ffffffffffffffff8111156111fb577f4e487b7100000000000000000000000000000000000000000000000000000000600052604160045260246000fd5b60405190808252806020026020018201604052801561123457816020015b61122161395d565b8152602001906001900390816112195790505b50905060005b84811015611430573373ffffffffffffffffffffffffffffffffffffffff16600b600060018461126a9190614ca2565b815260200190815260200160002060010160009054906101000a900473ffffffffffffffffffffffffffffffffffffffff1673ffffffffffffffffffffffffffffffffffffffff16141561141d5760006001826112c79190614ca2565b90506000600b60008381526020019081526020016000209050806040518060a0016040529081600082015481526020016001820160009054906101000a900473ffffffffffffffffffffffffffffffffffffffff1673ffffffffffffffffffffffffffffffffffffffff1673ffffffffffffffffffffffffffffffffffffffff1681526020016002820160009054906101000a900473ffffffffffffffffffffffffffffffffffffffff1673ffffffffffffffffffffffffffffffffffffffff1673ffffffffffffffffffffffffffffffffffffffff168152602001600382015481526020016004820160009054906101000a900460ff161515151581525050848681518110611400577f4e487b7100000000000000000000000000000000000000000000000000000000600052603260045260246000fd5b60200260200101819052506001856114189190614ca2565b945050505b808061142890614e9a565b91505061123a565b508094505050505090565b600080611447836125cd565b9050600073ffffffffffffffffffffffffffffffffffffffff168173ffffffffffffffffffffffffffffffffffffffff1614156114b9576040517f08c379a00000000000000000000000000000000000000000000000000000000081526004016114b090614a5e565b60405180910390fd5b80915050919050565b60008073ffffffffffffffffffffffffffffffffffffffff168273ffffffffffffffffffffffffffffffffffffffff161415611533576040517f08c379a000000000000000000000000000000000000000000000000000000000815260040161152a9061499e565b60405180910390fd5b600360008373ffffffffffffffffffffffffffffffffffffffff1673ffffffffffffffffffffffffffffffffffffffff168152602001908152602001600020549050919050565b6000611586600761260a565b60006115926007612230565b905061159e3382612620565b6115a8818561283e565b6115b281846128b2565b8091505092915050565b60006115e7308373ffffffffffffffffffffffffffffffffffffffff16612ab590919063ffffffff16565b11611627576040517f08c379a000000000000000000000000000000000000000000000000000000000815260040161161e9061489e565b60405180910390fd5b600a60009054906101000a900473ffffffffffffffffffffffffffffffffffffffff1673ffffffffffffffffffffffffffffffffffffffff163373ffffffffffffffffffffffffffffffffffffffff16146116b7576040517f08c379a00000000000000000000000000000000000000000000000000000000081526004016116ae9061497e565b60405180910390fd5b61170a336116e4308473ffffffffffffffffffffffffffffffffffffffff16612ab590919063ffffffff16565b8373ffffffffffffffffffffffffffffffffffffffff16612b769092919063ffffffff16565b507fa2bd9fcfcdba69f52bcd9a520846ad4bd685b187483f53efc42d035b2ddebff081611756308473ffffffffffffffffffffffffffffffffffffffff16612ab590919063ffffffff16565b604051611764929190614796565b60405180910390a150565b60006002905090565b60606001805461178790614e37565b80601f01602080910402602001604051908101604052809291908181526020018280546117b390614e37565b80156118005780601f106117d557610100808354040283529160200191611800565b820191906000526020600020905b8154815290600101906020018083116117e357829003601f168201915b5050505050905090565b61181c61181561216f565b8383612c1e565b5050565b3373ffffffffffffffffffffffffffffffffffffffff16600a60009054906101000a900473ffffffffffffffffffffffffffffffffffffffff1673ffffffffffffffffffffffffffffffffffffffff16146118b0576040517f08c379a00000000000000000000000000000000000000000000000000000000081526004016118a790614afe565b60405180910390fd5b8060098190555050565b6118cb6118c561216f565b8361223e565b61190a576040517f08c379a00000000000000000000000000000000000000000000000000000000081526004016119019061481e565b60405180910390fd5b61191684848484612d8b565b50505050565b6000600b60008381526020019081526020016000206003015490506119496119438361143b565b30611e79565b611988576040517f08c379a000000000000000000000000000000000000000000000000000000000815260040161197f9061483e565b60405180910390fd5b60006119938361143b565b905033600b600085815260200190815260200160002060020160006101000a81548173ffffffffffffffffffffffffffffffffffffffff021916908373ffffffffffffffffffffffffffffffffffffffff1602179055506001600b600085815260200190815260200160002060040160006101000a81548160ff0219169083151502179055506000600b600085815260200190815260200160002060010160006101000a81548173ffffffffffffffffffffffffffffffffffffffff021916908373ffffffffffffffffffffffffffffffffffffffff160217905550611a79600861260a565b611a848133856122d3565b600a60009054906101000a900473ffffffffffffffffffffffffffffffffffffffff1673ffffffffffffffffffffffffffffffffffffffff166108fc6009549081150290604051600060405180830381858888f19350505050158015611aee573d6000803e3d6000fd5b50600b600084815260200190815260200160002060010160009054906101000a900473ffffffffffffffffffffffffffffffffffffffff1673ffffffffffffffffffffffffffffffffffffffff166108fc349081150290604051600060405180830381858888f19350505050158015611b6b573d6000803e3d6000fd5b50505050565b6060611b7c82612124565b6000600660008481526020019081526020016000208054611b9c90614e37565b80601f0160208091040260200160405190810160405280929190818152602001828054611bc890614e37565b8015611c155780601f10611bea57610100808354040283529160200191611c15565b820191906000526020600020905b815481529060010190602001808311611bf857829003601f168201915b505050505090506000611c26612de7565b9050600081511415611c3c578192505050611c7f565b600082511115611c71578082604051602001611c59929190614658565b60405160208183030381529060405292505050611c7f565b611c7a84612dfe565b925050505b919050565b3373ffffffffffffffffffffffffffffffffffffffff16600b600084815260200190815260200160002060020160009054906101000a900473ffffffffffffffffffffffffffffffffffffffff1673ffffffffffffffffffffffffffffffffffffffff1614611d28576040517f08c379a0000000000000000000000000000000000000000000000000000000008152600401611d1f90614a1e565b60405180910390fd5b6009543414611d6c576040517f08c379a0000000000000000000000000000000000000000000000000000000008152600401611d6390614a9e565b60405180910390fd5b6000600b600084815260200190815260200160002060040160006101000a81548160ff02191690831515021790555080600b60008481526020019081526020016000206003018190555033600b600084815260200190815260200160002060010160006101000a81548173ffffffffffffffffffffffffffffffffffffffff021916908373ffffffffffffffffffffffffffffffffffffffff16021790555030600b600084815260200190815260200160002060020160006101000a81548173ffffffffffffffffffffffffffffffffffffffff021916908373ffffffffffffffffffffffffffffffffffffffff160217905550611e6a6008612e66565b611e7530600161180a565b5050565b6000600560008473ffffffffffffffffffffffffffffffffffffffff1673ffffffffffffffffffffffffffffffffffffffff16815260200190815260200160002060008373ffffffffffffffffffffffffffffffffffffffff1673ffffffffffffffffffffffffffffffffffffffff16815260200190815260200160002060009054906101000a900460ff16905092915050565b6000811415611f1b576120b4565b611f2484612ec2565b15612085573373ffffffffffffffffffffffffffffffffffffffff168373ffffffffffffffffffffffffffffffffffffffff16148015611f645750803410155b611fa3576040517f08c379a0000000000000000000000000000000000000000000000000000000008152600401611f9a906149be565b60405180910390fd5b3073ffffffffffffffffffffffffffffffffffffffff168273ffffffffffffffffffffffffffffffffffffffff161461201e578173ffffffffffffffffffffffffffffffffffffffff166108fc829081150290604051600060405180830381858888f1935050505015801561201c573d6000803e3d6000fd5b505b80341115612080573373ffffffffffffffffffffffffffffffffffffffff166108fc6120538334612f4490919063ffffffff16565b9081150290604051600060405180830381858888f1935050505015801561207e573d6000803e3d6000fd5b505b6120b3565b6120b28383838773ffffffffffffffffffffffffffffffffffffffff16612f5a909392919063ffffffff16565b5b5b50505050565b60007f01ffc9a7000000000000000000000000000000000000000000000000000000007bffffffffffffffffffffffffffffffffffffffffffffffffffffffff1916827bffffffffffffffffffffffffffffffffffffffffffffffffffffffff1916149050919050565b61212d81612fe3565b61216c576040517f08c379a000000000000000000000000000000000000000000000000000000000815260040161216390614a5e565b60405180910390fd5b50565b600033905090565b816004600083815260200190815260200160002060006101000a81548173ffffffffffffffffffffffffffffffffffffffff021916908373ffffffffffffffffffffffffffffffffffffffff160217905550808273ffffffffffffffffffffffffffffffffffffffff166121ea8361143b565b73ffffffffffffffffffffffffffffffffffffffff167f8c5be1e5ebec7d5bd14f71427d1e84f3dd0314c0f7b2291e5b200ac8c7c3b92560405160405180910390a45050565b600081600001549050919050565b60008061224a8361143b565b90508073ffffffffffffffffffffffffffffffffffffffff168473ffffffffffffffffffffffffffffffffffffffff16148061228c575061228b8185611e79565b5b806122ca57508373ffffffffffffffffffffffffffffffffffffffff166122b2846108fc565b73ffffffffffffffffffffffffffffffffffffffff16145b91505092915050565b8273ffffffffffffffffffffffffffffffffffffffff166122f38261143b565b73ffffffffffffffffffffffffffffffffffffffff1614612349576040517f08c379a0000000000000000000000000000000000000000000000000000000008152600401612340906148be565b60405180910390fd5b600073ffffffffffffffffffffffffffffffffffffffff168273ffffffffffffffffffffffffffffffffffffffff1614156123b9576040517f08c379a00000000000000000000000000000000000000000000000000000000081526004016123b09061491e565b60405180910390fd5b6123c68383836001613024565b8273ffffffffffffffffffffffffffffffffffffffff166123e68261143b565b73ffffffffffffffffffffffffffffffffffffffff161461243c576040517f08c379a0000000000000000000000000000000000000000000000000000000008152600401612433906148be565b60405180910390fd5b6004600082815260200190815260200160002060006101000a81549073ffffffffffffffffffffffffffffffffffffffff02191690556001600360008573ffffffffffffffffffffffffffffffffffffffff1673ffffffffffffffffffffffffffffffffffffffff168152602001908152602001600020600082825403925050819055506001600360008473ffffffffffffffffffffffffffffffffffffffff1673ffffffffffffffffffffffffffffffffffffffff16815260200190815260200160002060008282540192505081905550816002600083815260200190815260200160002060006101000a81548173ffffffffffffffffffffffffffffffffffffffff021916908373ffffffffffffffffffffffffffffffffffffffff160217905550808273ffffffffffffffffffffffffffffffffffffffff168473ffffffffffffffffffffffffffffffffffffffff167fddf252ad1be2c89b69c2b068fc378daa952ba7f163c4a11628f55a4df523b3ef60405160405180910390a46125c8838383600161314a565b505050565b60006002600083815260200190815260200160002060009054906101000a900473ffffffffffffffffffffffffffffffffffffffff169050919050565b6001816000016000828254019250508190555050565b600073ffffffffffffffffffffffffffffffffffffffff168273ffffffffffffffffffffffffffffffffffffffff161415612690576040517f08c379a0000000000000000000000000000000000000000000000000000000008152600401612687906149fe565b60405180910390fd5b61269981612fe3565b156126d9576040517f08c379a00000000000000000000000000000000000000000000000000000000081526004016126d0906148de565b60405180910390fd5b6126e7600083836001613024565b6126f081612fe3565b15612730576040517f08c379a0000000000000000000000000000000000000000000000000000000008152600401612727906148de565b60405180910390fd5b6001600360008473ffffffffffffffffffffffffffffffffffffffff1673ffffffffffffffffffffffffffffffffffffffff16815260200190815260200160002060008282540192505081905550816002600083815260200190815260200160002060006101000a81548173ffffffffffffffffffffffffffffffffffffffff021916908373ffffffffffffffffffffffffffffffffffffffff160217905550808273ffffffffffffffffffffffffffffffffffffffff16600073ffffffffffffffffffffffffffffffffffffffff167fddf252ad1be2c89b69c2b068fc378daa952ba7f163c4a11628f55a4df523b3ef60405160405180910390a461283a60008383600161314a565b5050565b61284782612fe3565b612886576040517f08c379a000000000000000000000000000000000000000000000000000000000815260040161287d906149de565b60405180910390fd5b806006600084815260200190815260200160002090805190602001906128ad9291906139ba565b505050565b600081116128f5576040517f08c379a00000000000000000000000000000000000000000000000000000000081526004016128ec90614b3e565b60405180910390fd5b6009543414612939576040517f08c379a000000000000000000000000000000000000000000000000000000000815260040161293090614a9e565b60405180910390fd5b6040518060a001604052808381526020013373ffffffffffffffffffffffffffffffffffffffff1681526020013073ffffffffffffffffffffffffffffffffffffffff16815260200182815260200160001515815250600b60008481526020019081526020016000206000820151816000015560208201518160010160006101000a81548173ffffffffffffffffffffffffffffffffffffffff021916908373ffffffffffffffffffffffffffffffffffffffff16021790555060408201518160020160006101000a81548173ffffffffffffffffffffffffffffffffffffffff021916908373ffffffffffffffffffffffffffffffffffffffff1602179055506060820151816003015560808201518160040160006101000a81548160ff021916908315150217905550905050612a7230600161180a565b817fb640004f1d14576d0c209e240cad0410e0d8c0c33a09375861fbadae2588a98d3330846000604051612aa99493929190614705565b60405180910390a25050565b6000612ac083612ec2565b15612ae4578173ffffffffffffffffffffffffffffffffffffffff16319050612b70565b8273ffffffffffffffffffffffffffffffffffffffff166370a08231836040518263ffffffff1660e01b8152600401612b1d919061467c565b60206040518083038186803b158015612b3557600080fd5b505afa158015612b49573d6000803e3d6000fd5b505050506040513d601f19601f82011682018060405250810190612b6d919061400d565b90505b92915050565b600080821415612b895760019050612c17565b612b9284612ec2565b15612be7578273ffffffffffffffffffffffffffffffffffffffff166108fc839081150290604051600060405180830381858888f19350505050158015612bdd573d6000803e3d6000fd5b5060019050612c17565b612c1283838673ffffffffffffffffffffffffffffffffffffffff166131509092919063ffffffff16565b600190505b9392505050565b8173ffffffffffffffffffffffffffffffffffffffff168373ffffffffffffffffffffffffffffffffffffffff161415612c8d576040517f08c379a0000000000000000000000000000000000000000000000000000000008152600401612c849061493e565b60405180910390fd5b80600560008573ffffffffffffffffffffffffffffffffffffffff1673ffffffffffffffffffffffffffffffffffffffff16815260200190815260200160002060008473ffffffffffffffffffffffffffffffffffffffff1673ffffffffffffffffffffffffffffffffffffffff16815260200190815260200160002060006101000a81548160ff0219169083151502179055508173ffffffffffffffffffffffffffffffffffffffff168373ffffffffffffffffffffffffffffffffffffffff167f17307eab39ab6107e8899845ad3d59bd9653f200f220920489ca2b5937696c3183604051612d7e91906147e1565b60405180910390a3505050565b612d968484846122d3565b612da2848484846131d6565b612de1576040517f08c379a0000000000000000000000000000000000000000000000000000000008152600401612dd89061487e565b60405180910390fd5b50505050565b606060405180602001604052806000815250905090565b6060612e0982612124565b6000612e13612de7565b90506000815111612e335760405180602001604052806000815250612e5e565b80612e3d8461336d565b604051602001612e4e929190614658565b6040516020818303038152906040525b915050919050565b60008160000154905060008111612eb2576040517f08c379a0000000000000000000000000000000000000000000000000000000008152600401612ea99061485e565b60405180910390fd5b6001810382600001819055505050565b60008073ffffffffffffffffffffffffffffffffffffffff168273ffffffffffffffffffffffffffffffffffffffff161480612f3d575073eeeeeeeeeeeeeeeeeeeeeeeeeeeeeeeeeeeeeeee73ffffffffffffffffffffffffffffffffffffffff168273ffffffffffffffffffffffffffffffffffffffff16145b9050919050565b60008183612f529190614cf8565b905092915050565b612fdd846323b872dd60e01b858585604051602401612f7b939291906146ce565b604051602081830303815290604052907bffffffffffffffffffffffffffffffffffffffffffffffffffffffff19166020820180517bffffffffffffffffffffffffffffffffffffffffffffffffffffffff8381831617835250505050613491565b50505050565b60008073ffffffffffffffffffffffffffffffffffffffff16613005836125cd565b73ffffffffffffffffffffffffffffffffffffffff1614159050919050565b600181111561314457600073ffffffffffffffffffffffffffffffffffffffff168473ffffffffffffffffffffffffffffffffffffffff16146130b85780600360008673ffffffffffffffffffffffffffffffffffffffff1673ffffffffffffffffffffffffffffffffffffffff16815260200190815260200160002060008282546130b09190614cf8565b925050819055505b600073ffffffffffffffffffffffffffffffffffffffff168373ffffffffffffffffffffffffffffffffffffffff16146131435780600360008573ffffffffffffffffffffffffffffffffffffffff1673ffffffffffffffffffffffffffffffffffffffff168152602001908152602001600020600082825461313b9190614ca2565b925050819055505b5b50505050565b50505050565b6131d18363a9059cbb60e01b848460405160240161316f929190614796565b604051602081830303815290604052907bffffffffffffffffffffffffffffffffffffffffffffffffffffffff19166020820180517bffffffffffffffffffffffffffffffffffffffffffffffffffffffff8381831617835250505050613491565b505050565b60006131f78473ffffffffffffffffffffffffffffffffffffffff16613558565b15613360578373ffffffffffffffffffffffffffffffffffffffff1663150b7a0261322061216f565b8786866040518563ffffffff1660e01b8152600401613242949392919061474a565b602060405180830381600087803b15801561325c57600080fd5b505af192505050801561328d57506040513d601f19601f8201168201806040525081019061328a9190613efd565b60015b613310573d80600081146132bd576040519150601f19603f3d011682016040523d82523d6000602084013e6132c2565b606091505b50600081511415613308576040517f08c379a00000000000000000000000000000000000000000000000000000000081526004016132ff9061487e565b60405180910390fd5b805181602001fd5b63150b7a0260e01b7bffffffffffffffffffffffffffffffffffffffffffffffffffffffff1916817bffffffffffffffffffffffffffffffffffffffffffffffffffffffff191614915050613365565b600190505b949350505050565b60606000600161337c8461357b565b01905060008167ffffffffffffffff8111156133c1577f4e487b7100000000000000000000000000000000000000000000000000000000600052604160045260246000fd5b6040519080825280601f01601f1916602001820160405280156133f35781602001600182028036833780820191505090505b509050600082602001820190505b600115613486578080600190039150507f3031323334353637383961626364656600000000000000000000000000000000600a86061a8153600a8581613470577f4e487b7100000000000000000000000000000000000000000000000000000000600052601260045260246000fd5b049450600085141561348157613486565b613401565b819350505050919050565b60006134f3826040518060400160405280602081526020017f5361666545524332303a206c6f772d6c6576656c2063616c6c206661696c65648152508573ffffffffffffffffffffffffffffffffffffffff166137b29092919063ffffffff16565b905060008151111561355357808060200190518101906135139190613eab565b613552576040517f08c379a000000000000000000000000000000000000000000000000000000000815260040161354990614b1e565b60405180910390fd5b5b505050565b6000808273ffffffffffffffffffffffffffffffffffffffff163b119050919050565b600080600090507a184f03e93ff9f4daa797ed6e38ed64bf6a1f01000000000000000083106135ff577a184f03e93ff9f4daa797ed6e38ed64bf6a1f01000000000000000083816135f5577f4e487b7100000000000000000000000000000000000000000000000000000000600052601260045260246000fd5b0492506040810190505b6d04ee2d6d415b85acef81000000008310613662576d04ee2d6d415b85acef81000000008381613658577f4e487b7100000000000000000000000000000000000000000000000000000000600052601260045260246000fd5b0492506020810190505b662386f26fc1000083106136b757662386f26fc1000083816136ad577f4e487b7100000000000000000000000000000000000000000000000000000000600052601260045260246000fd5b0492506010810190505b6305f5e1008310613706576305f5e10083816136fc577f4e487b7100000000000000000000000000000000000000000000000000000000600052601260045260246000fd5b0492506008810190505b6127108310613751576127108381613747577f4e487b7100000000000000000000000000000000000000000000000000000000600052601260045260246000fd5b0492506004810190505b6064831061379a5760648381613790577f4e487b7100000000000000000000000000000000000000000000000000000000600052601260045260246000fd5b0492506002810190505b600a83106137a9576001810190505b80915050919050565b60606137c184846000856137ca565b90509392505050565b60608247101561380f576040517f08c379a00000000000000000000000000000000000000000000000000000000081526004016138069061495e565b60405180910390fd5b6000808673ffffffffffffffffffffffffffffffffffffffff168587604051613838919061462a565b60006040518083038185875af1925050503d8060008114613875576040519150601f19603f3d011682016040523d82523d6000602084013e61387a565b606091505b509150915061388b87838387613897565b92505050949350505050565b606083156138fa576000835114156138f2576138b285613558565b6138f1576040517f08c379a00000000000000000000000000000000000000000000000000000000081526004016138e890614ade565b60405180910390fd5b5b829050613905565b613904838361390d565b5b949350505050565b6000825111156139205781518083602001fd5b806040517f08c379a000000000000000000000000000000000000000000000000000000000815260040161395491906147fc565b60405180910390fd5b6040518060a0016040528060008152602001600073ffffffffffffffffffffffffffffffffffffffff168152602001600073ffffffffffffffffffffffffffffffffffffffff168152602001600081526020016000151581525090565b8280546139c690614e37565b90600052602060002090601f0160209004810192826139e85760008555613a2f565b82601f10613a0157805160ff1916838001178555613a2f565b82800160010185558215613a2f579182015b82811115613a2e578251825591602001919060010190613a13565b5b509050613a3c9190613a40565b5090565b5b80821115613a59576000816000905550600101613a41565b5090565b6000613a70613a6b84614bb9565b614b94565b905082815260208101848484011115613a8857600080fd5b613a93848285614df5565b509392505050565b6000613aae613aa984614bea565b614b94565b905082815260208101848484011115613ac657600080fd5b613ad1848285614df5565b509392505050565b600081359050613ae8816155e5565b92915050565b600081359050613afd816155fc565b92915050565b600081519050613b12816155fc565b92915050565b600081359050613b2781615613565b92915050565b600081519050613b3c81615613565b92915050565b60008083601f840112613b5457600080fd5b8235905067ffffffffffffffff811115613b6d57600080fd5b602083019150836001820283011115613b8557600080fd5b9250929050565b600082601f830112613b9d57600080fd5b8135613bad848260208601613a5d565b91505092915050565b600082601f830112613bc757600080fd5b8135613bd7848260208601613a9b565b91505092915050565b600060208284031215613bf257600080fd5b613bfc6020614b94565b90506000613c0c84828501613c18565b60008301525092915050565b600081359050613c278161562a565b92915050565b600081519050613c3c8161562a565b92915050565b600060208284031215613c5457600080fd5b6000613c6284828501613ad9565b91505092915050565b60008060408385031215613c7e57600080fd5b6000613c8c85828601613ad9565b9250506020613c9d85828601613ad9565b9150509250929050565b600080600060608486031215613cbc57600080fd5b6000613cca86828701613ad9565b9350506020613cdb86828701613ad9565b9250506040613cec86828701613c18565b9150509250925092565b60008060008060808587031215613d0c57600080fd5b6000613d1a87828801613ad9565b9450506020613d2b87828801613ad9565b9350506040613d3c87828801613c18565b925050606085013567ffffffffffffffff811115613d5957600080fd5b613d6587828801613b8c565b91505092959194509250565b60008060408385031215613d8457600080fd5b6000613d9285828601613ad9565b9250506020613da385828601613aee565b9150509250929050565b60008060408385031215613dc057600080fd5b6000613dce85828601613ad9565b9250506020613ddf85828601613c18565b9150509250929050565b60008060008060008060a08789031215613e0257600080fd5b6000613e1089828a01613ad9565b9650506020613e2189828a01613c18565b955050604087013567ffffffffffffffff811115613e3e57600080fd5b613e4a89828a01613bb6565b945050606087013567ffffffffffffffff811115613e6757600080fd5b613e7389828a01613bb6565b935050608087013567ffffffffffffffff811115613e9057600080fd5b613e9c89828a01613b42565b92509250509295509295509295565b600060208284031215613ebd57600080fd5b6000613ecb84828501613b03565b91505092915050565b600060208284031215613ee657600080fd5b6000613ef484828501613b18565b91505092915050565b600060208284031215613f0f57600080fd5b6000613f1d84828501613b2d565b91505092915050565b600060208284031215613f3857600080fd5b600082013567ffffffffffffffff811115613f5257600080fd5b613f5e84828501613bb6565b91505092915050565b60008060408385031215613f7a57600080fd5b600083013567ffffffffffffffff811115613f9457600080fd5b613fa085828601613bb6565b9250506020613fb185828601613c18565b9150509250929050565b600060208284031215613fcd57600080fd5b6000613fdb84828501613be0565b91505092915050565b600060208284031215613ff657600080fd5b600061400484828501613c18565b91505092915050565b60006020828403121561401f57600080fd5b600061402d84828501613c2d565b91505092915050565b6000806040838503121561404957600080fd5b600061405785828601613c18565b925050602061406885828601613c18565b9150509250929050565b600061407e8383614595565b60a08301905092915050565b61409381614dbf565b82525050565b6140a281614d3e565b82525050565b6140b181614d2c565b82525050565b60006140c282614c2b565b6140cc8185614c59565b93506140d783614c1b565b8060005b838110156141085781516140ef8882614072565b97506140fa83614c4c565b9250506001810190506140db565b5085935050505092915050565b61411e81614d50565b82525050565b61412d81614d50565b82525050565b600061413e82614c36565b6141488185614c6a565b9350614158818560208601614e04565b61416181614f70565b840191505092915050565b600061417782614c36565b6141818185614c7b565b9350614191818560208601614e04565b80840191505092915050565b60006141a882614c41565b6141b28185614c86565b93506141c2818560208601614e04565b6141cb81614f70565b840191505092915050565b60006141e182614c41565b6141eb8185614c97565b93506141fb818560208601614e04565b80840191505092915050565b6000614214602d83614c86565b915061421f82614f81565b604082019050919050565b6000614237602f83614c86565b915061424282614fd0565b604082019050919050565b600061425a601b83614c86565b91506142658261501f565b602082019050919050565b600061427d603283614c86565b915061428882615048565b604082019050919050565b60006142a0600f83614c86565b91506142ab82615097565b602082019050919050565b60006142c3602583614c86565b91506142ce826150c0565b604082019050919050565b60006142e6601c83614c86565b91506142f18261510f565b602082019050919050565b6000614309600e83614c86565b915061431482615138565b602082019050919050565b600061432c602483614c86565b915061433782615161565b604082019050919050565b600061434f601983614c86565b915061435a826151b0565b602082019050919050565b6000614372602683614c86565b915061437d826151d9565b604082019050919050565b6000614395602083614c86565b91506143a082615228565b602082019050919050565b60006143b8602983614c86565b91506143c382615251565b604082019050919050565b60006143db602b83614c86565b91506143e6826152a0565b604082019050919050565b60006143fe602e83614c86565b9150614409826152ef565b604082019050919050565b6000614421602083614c86565b915061442c8261533e565b602082019050919050565b6000614444602a83614c86565b915061444f82615367565b604082019050919050565b6000614467600d83614c86565b9150614472826153b6565b602082019050919050565b600061448a601883614c86565b9150614495826153df565b602082019050919050565b60006144ad602183614c86565b91506144b882615408565b604082019050919050565b60006144d0602483614c86565b91506144db82615457565b604082019050919050565b60006144f3603d83614c86565b91506144fe826154a6565b604082019050919050565b6000614516601d83614c86565b9150614521826154f5565b602082019050919050565b6000614539603083614c86565b91506145448261551e565b604082019050919050565b600061455c602a83614c86565b91506145678261556d565b604082019050919050565b600061457f601c83614c86565b915061458a826155bc565b602082019050919050565b60a0820160008201516145ab60008501826145fd565b5060208201516145be6020850182614099565b5060408201516145d16040850182614099565b5060608201516145e460608501826145fd565b5060808201516145f76080850182614115565b50505050565b61460681614da8565b82525050565b61461581614da8565b82525050565b61462481614db2565b82525050565b6000614636828461416c565b915081905092915050565b600061464d82846141d6565b915081905092915050565b600061466482856141d6565b915061467082846141d6565b91508190509392505050565b600060208201905061469160008301846140a8565b92915050565b60006060820190506146ac60008301866140a8565b6146b9602083018561408a565b6146c6604083018461460c565b949350505050565b60006060820190506146e360008301866140a8565b6146f060208301856140a8565b6146fd604083018461460c565b949350505050565b600060808201905061471a60008301876140a8565b61472760208301866140a8565b614734604083018561460c565b6147416060830184614124565b95945050505050565b600060808201905061475f60008301876140a8565b61476c60208301866140a8565b614779604083018561460c565b818103606083015261478b8184614133565b905095945050505050565b60006040820190506147ab60008301856140a8565b6147b8602083018461460c565b9392505050565b600060208201905081810360008301526147d981846140b7565b905092915050565b60006020820190506147f66000830184614124565b92915050565b60006020820190508181036000830152614816818461419d565b905092915050565b6000602082019050818103600083015261483781614207565b9050919050565b600060208201905081810360008301526148578161422a565b9050919050565b600060208201905081810360008301526148778161424d565b9050919050565b6000602082019050818103600083015261489781614270565b9050919050565b600060208201905081810360008301526148b781614293565b9050919050565b600060208201905081810360008301526148d7816142b6565b9050919050565b600060208201905081810360008301526148f7816142d9565b9050919050565b60006020820190508181036000830152614917816142fc565b9050919050565b600060208201905081810360008301526149378161431f565b9050919050565b6000602082019050818103600083015261495781614342565b9050919050565b6000602082019050818103600083015261497781614365565b9050919050565b6000602082019050818103600083015261499781614388565b9050919050565b600060208201905081810360008301526149b7816143ab565b9050919050565b600060208201905081810360008301526149d7816143ce565b9050919050565b600060208201905081810360008301526149f7816143f1565b9050919050565b60006020820190508181036000830152614a1781614414565b9050919050565b60006020820190508181036000830152614a3781614437565b9050919050565b60006020820190508181036000830152614a578161445a565b9050919050565b60006020820190508181036000830152614a778161447d565b9050919050565b60006020820190508181036000830152614a97816144a0565b9050919050565b60006020820190508181036000830152614ab7816144c3565b9050919050565b60006020820190508181036000830152614ad7816144e6565b9050919050565b60006020820190508181036000830152614af781614509565b9050919050565b60006020820190508181036000830152614b178161452c565b9050919050565b60006020820190508181036000830152614b378161454f565b9050919050565b60006020820190508181036000830152614b5781614572565b9050919050565b6000602082019050614b73600083018461460c565b92915050565b6000602082019050614b8e600083018461461b565b92915050565b6000614b9e614baf565b9050614baa8282614e69565b919050565b6000604051905090565b600067ffffffffffffffff821115614bd457614bd3614f41565b5b614bdd82614f70565b9050602081019050919050565b600067ffffffffffffffff821115614c0557614c04614f41565b5b614c0e82614f70565b9050602081019050919050565b6000819050602082019050919050565b600081519050919050565b600081519050919050565b600081519050919050565b6000602082019050919050565b600082825260208201905092915050565b600082825260208201905092915050565b600081905092915050565b600082825260208201905092915050565b600081905092915050565b6000614cad82614da8565b9150614cb883614da8565b9250827fffffffffffffffffffffffffffffffffffffffffffffffffffffffffffffffff03821115614ced57614cec614ee3565b5b828201905092915050565b6000614d0382614da8565b9150614d0e83614da8565b925082821015614d2157614d20614ee3565b5b828203905092915050565b6000614d3782614d88565b9050919050565b6000614d4982614d88565b9050919050565b60008115159050919050565b60007fffffffff0000000000000000000000000000000000000000000000000000000082169050919050565b600073ffffffffffffffffffffffffffffffffffffffff82169050919050565b6000819050919050565b600060ff82169050919050565b6000614dca82614dd1565b9050919050565b6000614ddc82614de3565b9050919050565b6000614dee82614d88565b9050919050565b82818337600083830152505050565b60005b83811015614e22578082015181840152602081019050614e07565b83811115614e31576000848401525b50505050565b60006002820490506001821680614e4f57607f821691505b60208210811415614e6357614e62614f12565b5b50919050565b614e7282614f70565b810181811067ffffffffffffffff82111715614e9157614e90614f41565b5b80604052505050565b6000614ea582614da8565b91507fffffffffffffffffffffffffffffffffffffffffffffffffffffffffffffffff821415614ed857614ed7614ee3565b5b600182019050919050565b7f4e487b7100000000000000000000000000000000000000000000000000000000600052601160045260246000fd5b7f4e487b7100000000000000000000000000000000000000000000000000000000600052602260045260246000fd5b7f4e487b7100000000000000000000000000000000000000000000000000000000600052604160045260246000fd5b6000601f19601f8301169050919050565b7f4552433732313a2063616c6c6572206973206e6f7420746f6b656e206f776e6560008201527f72206f7220617070726f76656400000000000000000000000000000000000000602082015250565b7f546865206f776e657220686173206e6f7420617070726f76656420746865207460008201527f6f6b656e20696420746f2073656c6c0000000000000000000000000000000000602082015250565b7f436f756e7465723a2064656372656d656e74206f766572666c6f770000000000600082015250565b7f4552433732313a207472616e7366657220746f206e6f6e20455243373231526560008201527f63656976657220696d706c656d656e7465720000000000000000000000000000602082015250565b7f62616c616e6365206973207a65726f0000000000000000000000000000000000600082015250565b7f4552433732313a207472616e736665722066726f6d20696e636f72726563742060008201527f6f776e6572000000000000000000000000000000000000000000000000000000602082015250565b7f4552433732313a20746f6b656e20616c7265616479206d696e74656400000000600082015250565b7f696e76616c696420616d6f756e74000000000000000000000000000000000000600082015250565b7f4552433732313a207472616e7366657220746f20746865207a65726f2061646460008201527f7265737300000000000000000000000000000000000000000000000000000000602082015250565b7f4552433732313a20617070726f766520746f2063616c6c657200000000000000600082015250565b7f416464726573733a20696e73756666696369656e742062616c616e636520666f60008201527f722063616c6c0000000000000000000000000000000000000000000000000000602082015250565b7f6d73672e73656e646572206d757374206265206f776e65722061646472657373600082015250565b7f4552433732313a2061646472657373207a65726f206973206e6f74206120766160008201527f6c6964206f776e65720000000000000000000000000000000000000000000000602082015250565b7f57726f6e6720757365616765206f66204554482e756e6976657273616c54726160008201527f6e7366657246726f6d2829000000000000000000000000000000000000000000602082015250565b7f45524337323155524953746f726167653a2055524920736574206f66206e6f6e60008201527f6578697374656e7420746f6b656e000000000000000000000000000000000000602082015250565b7f4552433732313a206d696e7420746f20746865207a65726f2061646472657373600082015250565b7f4f6e6c79206974656d206f776e65722063616e20706572666f726d207468697360008201527f206f7065726174696f6e00000000000000000000000000000000000000000000602082015250565b7f696e76616c696420746f6b656e00000000000000000000000000000000000000600082015250565b7f4552433732313a20696e76616c696420746f6b656e2049440000000000000000600082015250565b7f4552433732313a20617070726f76616c20746f2063757272656e74206f776e6560008201527f7200000000000000000000000000000000000000000000000000000000000000602082015250565b7f5072696365206d75737420626520657175616c20746f206c697374696e67207060008201527f7269636500000000000000000000000000000000000000000000000000000000602082015250565b7f4552433732313a20617070726f76652063616c6c6572206973206e6f7420746f60008201527f6b656e206f776e6572206f7220617070726f76656420666f7220616c6c000000602082015250565b7f416464726573733a2063616c6c20746f206e6f6e2d636f6e7472616374000000600082015250565b7f4f6e6c79206d61726b6574706c616365206f776e65722063616e20757064617460008201527f65206c697374696e672070726963652e00000000000000000000000000000000602082015250565b7f5361666545524332303a204552433230206f7065726174696f6e20646964206e60008201527f6f74207375636365656400000000000000000000000000000000000000000000602082015250565b7f5072696365206d757374206265206174206c6561737420312077656900000000600082015250565b6155ee81614d2c565b81146155f957600080fd5b50565b61560581614d50565b811461561057600080fd5b50565b61561c81614d5c565b811461562757600080fd5b50565b61563381614da8565b811461563e57600080fd5b5056fea2646970667358221220e134f3964d7b5ed705cbfc7b7a312717e828760e33ada79b98e90e25d9f8e4f964736f6c63430008040033",
  "linkReferences": {},
  "deployedLinkReferences": {}
}